:020000040800F2
:1000000070B700204903000801700008AF600008C5
:10001000FD6F00081D22000851A900080000000023
:10002000000000000000000000000000890200083D
:100030003B2C000800000000E5020008CD9C0008F1
:1000400063030008630300086303000863030008F8
:1000500063030008630300083D2C000863030008E5
:1000600063030008472C0008512C000863030008B4
:1000700063030008630300086303000863030008C8
:1000800063030008630300086303000863030008B8
:100090002122000863030008630300085B2C0008AA
:1000A0006303000863030008630300086303000898
:1000B0006303000863030008630300086303000888
:1000C0006303000863030008630300086303000878
:1000D0006303000829A500086303000821A800089D
:1000E0006303000863030008630300086303000858
:1000F0006303000863030008630300086303000848
:100100006303000863030008630300086303000837
:10011000630300086303000863030008199E0008D6
:100120006303000863030008C52200086303000896
:100130006303000863030008630300086303000807
:1001400063030008630300086303000863030008F7
:1001500063030008630300086303000863030008E7
:1001600063030008630300086303000863030008D7
:100170006303000863030008630300080000000035
:10018000630300086303000800F002F800F06CF855
:100190000AA090E8000C82448344AAF10107DA45E2
:1001A00001D100F061F8AFF2090EBAE80F0013F0C8
:1001B000010F18BFFB1A43F0010318470C1501008B
:1001C0002C1501000A444FF0000C10F8013B13F00D
:1001D000070408BF10F8014B1D1108BF10F8015BA0
:1001E000641E05D010F8016B641E01F8016BF9D193
:1001F00013F0080F1EBF10F8014BAD1C0C1B09D1EA
:100200006D1E58BF01F801CBFAD505E014F8016B5B
:1002100001F8016B6D1EF9D59142D6D370470000ED
:100220000023002400250026103A28BF78C1FBD8FF
:10023000520728BF30C148BF0B607047662910F0D5
:10024000B984642900F0A281002070471FB510F026
:10025000F9FB00F0D9FD0400002000210FF012FB93
:10026000E0601FBD10B510BD00F0EAFE1146FFF7BB
:10027000EDFF0DF07BF800F008FF03B4FFF7F2FF8D
:1002800003BC00F0AFFF00002C4B19680868B0E811
:10029000F04F80F30988BFF36F8F4FF0000080F3B9
:1002A000118870470000000008480068006880F36B
:1002B00008884FF0000080F3148862B661B6BFF37F
:1002C0004F8FBFF36F8F00DF00BF00BF08ED00E06E
:1002D000DFF80C00016841F470010160704700BF55
:1002E00088ED00E0EFF30980BFF36F8F134B1A68BE
:1002F0001EF0100F08BF20ED108A20E9F04F1060AB
:1003000009B44FF0500080F31188BFF34F8FBFF353
:100310006F8F0EF04DFB4FF0000080F3118809BC89
:1003200019680868B0E8F04F1EF0100F08BFB0EC75
:10033000108A80F30988BFF36F8F7047C8010020CF
:10034000EFF30580704700000948804709480047DF
:10035000FEE7FEE7FEE7FEE7FEE7FEE7FEE7FEE775
:10036000FEE7FEE704480549054A064B70470000D2
:10037000B59D0008890100087077002070B7002043
:1003800070970020709700209FED1A1AF5EE000A72
:1003900040EE010ABDEEE00AF5EEC00A10EE100ACA
:1003A000F1EE10FA38BF401E00EE100A1349F7EEC6
:1003B000001AB8EEC00A30EEC00ADFED0F0A20EED8
:1003C000200AFCEEC00A10EE900AC0F3080000EE0E
:1003D000900A01EB8000F8EE600A90ED011A70EED1
:1003E000600A90ED000A71EEE01A21EE800A00EE3C
:1003F000810A704783F9223E00000044080E01087C
:10040000DFED190AB5EEC00A60EE200ABDEEE01A73
:1004100011EE100AF1EE10FA38BF401E00EE100A7D
:100420001349F7EE001AB8EEC00A30EEC00ADFED4D
:100430000F0A60EE200ABCEEE00A10EE100AC0F3CC
:10044000080000EE100A01EB8000B8EE400A90EDC3
:10045000011A70EEC00A90ED000A71EEE01A21EE6A
:10046000800A00EE810A704783F9223E00000044B2
:10047000080E010853EA020C00F069802DE9F04BE8
:100480004FF00006002B1FBFB3FA83F503FA05F403
:1004900024FA05F65E4012BF1643B2FA82F502FA5C
:1004A00005F4C5F120051EBF22FA05FC44EA0C0440
:1004B000203556EA044C4FEA144418BF641C4FF030
:1004C00000084FF00009904271EB030C39D300296A
:1004D00019BFB1FA81F701FA07F6B0FA80F700FA0E
:1004E00007F6C7F120071EBF20FA07FC46EA0C06F4
:1004F0002037B6FBF4FCA7EB0507103F07F01F0BF6
:10050000CBF120060CFA0BFB2CFA06F644BFB346DF
:100510000026202FA4BF5E464FF0000B5BEA060CBE
:1005200008BF4FF0010B19EB0B09ABFB027C48EB4A
:100530000608C01B06FB02CC0BFB03CC71EB0C01C5
:10054000C1E70B46024641464846BDE8F08B13B56D
:100550004FF000004FF00001AFF30080BDE81C40F9
:10056000704700000FB41CB5074B06AA7B446946D0
:100570000090059800F00DFC0020694600F01CFC7E
:100580001CBC5DF814FB0000490800002DE9F04197
:100590000646002410687529314616A510D0AFF321
:1005A0000080002802DA404213A507E031688A077C
:1005B00001D512A502E0490704D511A5012401E0E7
:1005C000AFF3008000210A2206F1240709E0B0FB06
:1005D000F2FCB0FBF2F302FB1C00303078541846FA
:1005E000491C0028F3D123462A463046BDE8F04195
:1005F00000F062B9000000002D0000002B00000098
:10060000200000002DE9F0474FF0000A894604461B
:10061000C0F820A02046E1688847002876D0252829
:1006200006D0D4E901219047206A401C2062F1E7FE
:10063000E168204600258847C4F81CA0064600272C
:10064000C4F818A02A2E09D030460AF0F5FB38B3BA
:1006500004EB8708303EC8F8186019E059F8041B0D
:10066000204604EB87029161E1688847012F064626
:1006700018D1E069002820DA25F020051DE0D8F81F
:10068000180000EB800006EB40003038C8F8180076
:100690002046E168884706460AF0CEFB0028EED1E6
:1006A000012F0AD02E2E08D12046E16888477F1CF2
:1006B0000646022F45F02005C4DBA069002803DAB6
:1006C000404245F00105A061E80701D025F0100582
:1006D000B6B1A6F14100192802D8203645F40065CC
:1006E0004A463146204625604D46FFF7A7FD58B1E2
:1006F000012806D0ED1D25F0070000F1080989E763
:1007000004E005F1040985E730468AE7206ABDE880
:10071000F08710B5431C02E010F8011B71B181078E
:10072000FAD14FF0013202C88C1A8C4314EAC2117C
:10073000F9D0C01A0A0603D0C01E10BDC01A10BDE1
:100740000A0401D0801E10BD0902FCD0401E10BD5D
:10075000032A40F2308010F0030C00F0158011F8ED
:10076000013BBCF1020F624498BF11F801CB00F8C5
:10077000013B38BF11F8013BA2F1040298BF00F819
:1007800001CB38BF00F8013B11F0030300F02580D6
:10079000083AC0F0088051F8043B083A51F804CBFD
:1007A000A0E80810F5E7121D5CBF51F8043B40F8C3
:1007B000043BAFF30080D20724BF11F8013B11F8CE
:1007C00001CB48BF11F8012B24BF00F8013B00F812
:1007D00001CB48BF00F8012B704710B5203AC0F09C
:1007E0000B80B1E81850203AA0E81850B1E8185032
:1007F000A0E81850BFF4F5AF5FEA027C24BFB1E86F
:100800001850A0E8185044BF18C918C0BDE81040DF
:100810005FEA827C24BF51F8043B40F8043B08BFE8
:100820007047D20728BF31F8023B48BF11F8012BAF
:1008300028BF20F8023B48BF00F8012B704702F0A8
:10084000FF0343EA032242EA024200F0BCBA4FF03F
:10085000000200B5134694469646203922BFA0E810
:100860000C50A0E80C50B1F12001BFF4F7AF09071C
:1008700028BFA0E80C5048BF0CC05DF804EB89000D
:1008800028BF40F8042B08BF704748BF20F8022B50
:1008900011F0804F18BF00F8012B70477047704768
:1008A000704710B500F0B4FA006810BD10B50446EA
:1008B00000F0AEFA046010BD2DE9F0470D469946F0
:1008C0009246044600F124080168880604D5E069D0
:1008D00021F01001216000E00120A84201DD471B4A
:1008E00000E00027A1697A1902EB0900081AA0614B
:1008F0002078C00602D42046AFF30080002608E02E
:10090000D4E901211AF806009047206A401C761CA1
:1009100020624E45F4DB2078C0060AD52046AFF3AE
:10092000008006E0D4E9012130209047206A401C75
:100930002062381EA7F10107F4DC07E0D4E90121A9
:1009400018F805009047206A401C2062281EA5F177
:100950000105F3DC2046AFF300802078000602D5C5
:100960000220BDE8F0870120FBE770472DE9FF4F2B
:100970000C461E464FF0FF378BB0D2E90001DDF880
:1009800060800A908A46C1F30A5505B93D460021A8
:10099000084610F0FFF8BAF1000F00F4400005DA45
:1009A00000EB80004FF4400101EA50004FEA9059FB
:1009B000B9F1010F00DDB9460A9850EA4A000ED09D
:1009C00044F61050A5F2FF3545432F14B8F1000F3F
:1009D0001ED07542291E1EDDC9F100021CE0B8F1CF
:1009E000010F4FF0000001D0302103E0F24305E099
:1009F0002154401CB042FBDB304600220021215430
:100A00000B99C1F80880C1E900200FB0BDE8F08F54
:100A1000BD1B6D1CDEE74A4600DA694206A800F0FD
:100A200099FA06AB93E8070003AB83E8070050464A
:100A30000A9900F0FEFB8DE80700A0F500501F3872
:100A400000900398002D0ADD42F21F014A46084437
:100A5000002303A90390684600F067FE09E0A0F5B3
:100A600000504A461F38002303A90390684600F04F
:100A700071FE8DE807000004000C03D04FF0FF303A
:100A8000410800E01046B8F1000F03D000220092A8
:100A900015461EE0751E05D400F0BEF930326255D1
:100AA0006D1EF9D5B3460122084302D000227F1CF7
:100AB00004E02078302801D100227F1E002A099707
:100AC00084D01DE0112D07DA00F0A6F9303262550E
:100AD0006D1C50EA0102F5D1084302D00098C8B15C
:100AE0000EE00021681E05E0235C625C6354225422
:100AF000401E491C8142F7DBAB46A81B401E0990F3
:100B0000002004F80B000B98099AC0F80880C0E98F
:100B1000002B7AE711264FF0000857E72DE9F04F38
:100B200088460446D21D22F0070191B0D1E90001A8
:100B3000CDE90A0109F00EFF02460B98C00F01D063
:100B40002D2007E02068810701D52B2002E020211D
:100B500001EAC000032A099001D0072A05DB0346F9
:100B60004146204600F0B6F90BE12078800601D519
:100B7000E06900E00620B8F1650F814606D0B8F1C3
:100B8000660F18D0B8F1670F70D131E00020B9F1CD
:100B9000110F009001DB112301E009F101030AAA02
:100BA00001A90CA8FFF7E2FEDDE90C70002609F1AF
:100BB0000105834647E001204B4600904FF0004777
:100BC0000AAA01A90CA8FFF7D1FEDDE90DB00C9926
:100BD0005D46002610B909F101000D18B9EB0500BA
:100BE00003D4C0F1FF3609F10105A5EB09002BE0A4
:100BF000B9F1010F01DA4FF001090020B9F1110F2D
:100C00000090484601DD112300E003460AAA01A92D
:100C10000CA8FFF7ABFEDDE90C704D4600268346BD
:100C2000207800070AD4AB4500DA5D4601A8012D03
:100C300004DD411911F8011C302907D04F4502DAB3
:100C400017F1040F04DA012082460FE06D1EEEE773
:100C5000002F02DCED1B3E4403E0781CA84200DDBF
:100C60007D1CB81B00F1010A4FF0004720780007F7
:100C700003D4AA4501DB4FF0FF3A0021B7F1004F42
:100C80000DF143088DF8431024D002202B23002FB0
:100C900001DA7F422D230A21021EA0F1010000DCAF
:100CA0005FB197FBF1FC97FBF1F201FB1C7C17464F
:100CB0000CF1300C08F801CDEEE7A8F1010003704B
:100CC0002188090501D5452100E06521A0F1010831
:100CD00000F8011C09980FA9A1EB0807FF1D00B13E
:100CE0000120411901EBEA70A1693844081A401E3D
:100CF000A0612078C00602D42046AFF30080099896
:100D000028B1D4E901219047206A401C2062207854
:100D1000C00622D52046AFF300801EE0002E04DB83
:100D2000B34502DD01A8805D00E03020D4E9012157
:100D30009047206A401C2062761CAAF101005FEAFD
:100D4000000A0AD100F060F8C0680168405CD4E98C
:100D500001219047206A401C2062281EA5F1010550
:100D6000DCDC07E0D4E9012118F8010B9047206A88
:100D7000401C2062381EA7F10107F3DC2046AFF3C8
:100D80000080032011B041E601694A1C0261087825
:100D9000704700B58FB0CDE90131002105910549BB
:100DA0007944CDE9031011466846FFF72BFC0FB0DC
:100DB00000BD0000E5FFFFFF0A6802F8010B0A60B2
:100DC00070474FF000020429C0F0128010F0030CAD
:100DD0003FF43FADCCF1040CBCF1020F18BF00F89A
:100DE000012BA8BF20F8022BA1EB0C01FFF731BDAE
:100DF0005FEAC17C24BF00F8012B00F8012B48BF3B
:100E000000F8012B70470000004870472C77002045
:100E1000004870470C77002030B5B0F10A024FEA65
:100E2000900E71F100034EEA817EB0EB0E0061EB93
:100E300091014FEA101E4EEA017E10EB0E0041EBCD
:100E400011114FEA102E4EEA016E10EB0E0041EB2D
:100E500011214FEA104E4EEA014E10EB0E0041EB0D
:100E60001141401841F100014FEAD00040EA4170C1
:100E70004FEAD10110EB80054FEA810444EA9074F7
:100E800044EB01046D1944EB0404521BA3414FF0E1
:100E9000000348BF0A3200D530BD401C41F10001BB
:100EA00030BD00001FB584B000200A9C06AB04AA28
:100EB00002A90094AFF3008018B1DDE9020108B087
:100EC00010BD0348204000F0E9F800200146F6E795
:100ED0000000207C2DE9F0411F46044603260168EE
:100EE000072A01F4006004DB08B116A505E016A589
:100EF00003E008B115A500E015A521F01000206061
:100F0000A069C01EA0610FB1401EA0612046AFF3D2
:100F100000804FB1D4E9012138469047206A401C37
:100F20002062C01C206206E0206AFAE7D4E90121B1
:100F300015F8010B9047761EF8D22046AFF30080DB
:100F4000BDE8F0814E414E006E616E00494E460094
:100F5000696E66002DE9F047814616468AB035482D
:100F600078440DC88DE80D0032487844801C03ACED
:100F70000DC884E80D0041F69B300844372190FBF2
:100F8000F1F290FBF1F5A5F1800501FB12041B3C89
:100F900002D56442012000E00020DFF898A08046DE
:100FA0000027FA44AAF1BE0A0EE0E0070AD0324652
:100FB000684607EB470101230AEB810100F0CAFBF9
:100FC0008DE8070064107F1C002CEED1194F7F4480
:100FD000AE3F19E0E80715D007EB04100DF1180A31
:100FE00090E80E008AE80E00C068F04201D198191E
:100FF00008903246012306A903A800F0ABFB03AB1F
:1010000083E807006D10641C002DE3D14FF001034D
:1010100032466946B8F1000F03A802D000F085FB04
:1010200001E000F097FBC9E90001C9F808200AB007
:10103000BDE8F08724070100004870470C770020C6
:101040007546FFF7F9FFAE4605006946534620F0A6
:101050000700854618B020B5FFF784F9BDE82040A9
:101060004FF000064FF000074FF000084FF0000B64
:1010700021F00701AC46ACE8C009ACE8C009ACE817
:10108000C009ACE8C0098D46704710B50446AFF3FF
:1010900000802046BDE81040FFF7EFB810B500F023
:1010A0004BF8BDE8104000F041B800004FF0013CA3
:1010B00050F8042B51F8043B9A4221D1A2EB0C03C7
:1010C000934313EACC1317D150F8042B51F8043B87
:1010D0009A4215D1A2EB0C03934313EACC130BD124
:1010E00050F8042B51F8043B9A4209D1A2EB0C03AF
:1010F000934313EACC13DBD04FF00000704700BFDE
:10110000D01A01BAB1FA81F101F0180122FA01F006
:10111000CB40C1F12001DBB2C0B2C01A2CFA01F3FE
:10112000D11A914311EAC311E6D17047002801D0CA
:1011300000F058B87047000010B5022803D04101F4
:1011400003D50DA112E0002010BD010101D50FA1B2
:101150000CE0C10001D511A108E0810001D512A168
:1011600004E0400001D513A100E0002115A000F02B
:101170003FF8012010BD0000496E76616C69642063
:101180004F7065726174696F6E0000004469766922
:101190006465204279205A65726F00004F7665724F
:1011A000666C6F7700000000556E646572666C6F48
:1011B00077000000496E657861637420526573752D
:1011C0006C7400005349474650453A204172697497
:1011D000686D6574696320657863657074696F6EA6
:1011E0003A20000001491820ABBEFEE726000200AD
:1011F00070B505460C460A2000E06D1C00F011F8A1
:1012000035B128780028F8D102E0641C00F009F814
:1012100014B120780028F8D1BDE870400A20AFF35F
:10122000008008B569468DF800000320ABBE08BDFC
:1012300070475FEA400C08BF91F0000F4FEA8C2323
:101240004FEAC12243EA51514FEA1C5018BF00F542
:10125000F0404FEA300018BF41F000415FEA6C5C9B
:1012600000F02980BCF1FF3F08BF40F0804070478C
:10127000130C06BF12044FF0100C4FF0000C130EAD
:1012800004BF12020CF1080C130F04BF12010CF181
:10129000040C930F04BF92000CF1020CD30F04BF97
:1012A00052000CF1010C11464FF00002A0F11F009A
:1012B000A0EB0C00704711F0004F08BF704731F0F1
:1012C00000413FF4D5AF0B0C06BF09044FF0100CE2
:1012D0004FF0000C0B0E04BF09020CF1080C0B0FB1
:1012E00004BF09010CF1040C8B0F04BF89000CF141
:1012F000020CCB0F04BF49000CF1010CCCF1200310
:10130000A0EB0C0022FA03F302FA0CF241EA03010B
:1013100000F10100704720F07F4C80EA030023F0C9
:101320007F47ACEB070303F57C5300F0004003F16B
:10133000FF032DE980494FEA154B09B44FEA1443E6
:1013400025EA0B4E24EA03480FF2042606EB132786
:1013500049083E785FEA320203FB0667C7F50007DB
:1013600007FB06F64FEA54374FEAD64606F1020667
:1013700007FB066CCCF1005C4FEA1C472CEA074CDB
:1013800007FB06F40CFB06F504EB15464FEA961630
:1013900034BF00204FF000404FEAD13706FB07FC76
:1013A0004FEA1C4C0CFB0BF7D21B03FB0CF761EB59
:1013B00007010CFB0EF7B0EB074072EB17420CFB7A
:1013C00008F734BFA2EB0742B2EB074261EB1741CB
:1013D0004FEA0C444FEA910706FB07FC4FEA1C4C0E
:1013E0000CFB0BF7B0EBC74072EB573203FB0CF76B
:1013F00034BFA2EBC742B2EBC74261EB57310CFBE3
:101400000EF7B0EBC70072EB57720CFB08F734BF56
:10141000A2EBC702B2EBC70261EB5771039F4FEA21
:10142000816141EA921104EBCC044FEAD1374FEAD3
:10143000826206FB07FC42EA90124FEA80604FEAA4
:101440001C4C0CFB0BF7D21B03FB0CF761EB0701E9
:101450000CFB0EF7B0EB074072EB17420CFB08F7E2
:1014600034BFA2EB0742B2EB074261EB17414FEAF0
:101470008C554FEA910704EB9C2406FB07FC4FEACE
:101480001C4C0CFB0BF7B0EBC74072EB573203FB65
:101490000CF734BFA2EBC742B2EBC74261EB573146
:1014A0000CFB0EF7B0EBC70072EB57720CFB08F7A2
:1014B00034BFA2EBC702B2EBC70261EB577115EB69
:1014C0004C254FEA816141EA92114FEA82624FEA6C
:1014D000D13742EA901206FB07FC44F100044FEAC0
:1014E00080604FEA1C4C0CFB0BF7D21B03FB0CF784
:1014F00061EB07010CFB0EF7B0EB074072EB1742F4
:101500000CFB08F734BFA2EB0742B2EB074261EBDA
:10151000174115EB1C154FEA813141EA92414FEA20
:10152000823242EA90424FEA80304FEA0C7644F130
:10153000000448EA03434EEA0B484FF0000EB2EBBA
:10154000080C71EB030724BF624639464EEB0E0EC2
:101550004FF0000B0018524149414BEB0B0BB2EB23
:10156000080C71EB03077BF1000B24BF6246394680
:101570004EEB0E0E4FF0000B0018524149414BEB61
:101580000B0BB2EB080C71EB03077BF1000B24BFD4
:10159000624639464EEB0E0E51EA020718BF46F07E
:1015A000010616EB0E7655F1000254F1000103D549
:1015B000BDE88901BDE80088BDE88901BDE80048B3
:1015C000B619524141EB0101A3F10103704780803C
:1015D0007F7E7D7C7B7A797877767675747372718D
:1015E00071706F6E6E6D6C6C6B6A6A696868676645
:1015F00066656464636362616160605F5F5E5E5DD7
:101600005D5C5C5B5B5A5A5959585857575656554A
:1016100055555454535352525251515050504F4FAC
:101620004F4E4E4D4D4D4C4C4C4B4B4B4A4A4A49FC
:10163000494948484847474747464646454545443F
:101640004444444343434342424242414141002BCC
:101650009C4630D477002BD01CB54FEA370703B433
:101660004FF010004FF01001BAF1000F06D0BCF19E
:10167000000FDCBF40F0080040F008010FF08AFACC
:101680000FBCBDE810400BF1010BBBF1010F08BF0F
:101690005FEA170722BF12F1010211F101014FF0B9
:1016A000004143F1000300F0004043EA00007047AE
:1016B000F9D35708D0E746EA064613F1400F4FEA40
:1016C00016461FDD13F1200FDFBF16430A46002127
:1016D00020335B42BED0C3F1200746EA064602FA39
:1016E00007F74FEA164646EA0706C3F1200722FA33
:1016F00003F201FA07F721FA03F14FF0000342EA7F
:101700000702A7E746EA020646EA06464FEA1646F9
:1017100046EA0106BCBF46EA0646360C4FF0000317
:101720004FF000024FF0000194E72DE9804C9A46FB
:10173000934670B491E8380007C831EA400C48BFBE
:1017400034EA430C03D5FFF7E6FDFFF780FFF0BC5A
:10175000BDE8008C2DE9804C9A46934670B491E820
:10176000380007C810F0804F08BF13F0804F03D136
:1017700000F005F8FFF76BFFF0BCBDE8008C20F02F
:101780007F4780EA030023F07F4C07EB0C03A3F5AF
:101790007C5300F00040A3F1FE0392F0000F00F034
:1017A000B38095F0000F00F077802DE901494FEAF2
:1017B00011404FEA144621EA004800FB06FC24EAE7
:1017C000064708FB06F607FB08F800FB07F718EBCF
:1017D00006484CEB164C4FEA124B18EB07484FEA01
:1017E00015464CEB174022EA0B4E0BFB06FC25EA94
:1017F00006470EFB06F607FB0EFE0BFB07F71EEB7C
:10180000064E4CEB164C4FF000061EEB074E4CEB11
:10181000174B18EB0B0840F1000018EB0E0B58EBC0
:10182000000840F100008F1A4FF000013CBFC9438F
:10183000661B14BFB5EB040C00213CBFC943F61B6B
:101840004FEA17444EEA8E0E27EA04454FEA1C473A
:1018500004FB07622CEA074C05FB07F70CFB05F6B7
:1018600004FB0CFC16EB074642EB174216EB0C464A
:1018700042EB1C421BEB060658EB0202414146EAD2
:101880009E0601D5BDE80189B619524141EB01011F
:10189000A3F10103BDE801894FEA14454FEA11475E
:1018A00024EA054621EA074C05FB07F406FB07F787
:1018B0000CFB06F105FB0CFC11EB074144EB174454
:1018C0004FEA124711EB0C4144EB1C4422EA074C4F
:1018D00005FB07F206FB07F70CFB06F605FB0CFC05
:1018E00016EB074642EB174216EB0C4642EB1C4543
:1018F0006A1854F1000148BF7047B619524141EBD4
:101900000101A3F10103704795F0000F37D04FEAB2
:1019100011424FEA144721EA024624EA074C02FB2F
:1019200007F106FB07F70CFB06F402FB0CFC14EBBB
:10193000074441EB17414FEA154714EB0C4441EBC8
:101940001C4125EA074C02FB07F506FB07F70CFBD9
:1019500006F602FB0CFC16EB074645EB174516EBAB
:101960000C4645EB1C42121951F1000148BF70476B
:10197000B619524141EB0101A3F1010370474FEA4F
:1019800014454FEA114724EA054621EA074C05FBB6
:1019900007F106FB07F70CFB06F24FF0000605FB0C
:1019A0000CFC12EB074241EB174112EB0C4251EBDE
:1019B0001C4148BF7047921841EB0101A3F101039C
:1019C000704710B52DED028BB0EE408AB0EE480A9C
:1019D00009F008F8BDEC028B10BD10B52DED028B9F
:1019E000B0EE408AF0EE608AF0EE680AB0EE480A87
:1019F00009F08EF8BDEC028B10BD10B52DED028BF9
:101A0000B0EE408AB0EE480AFEF7BEFCBDEC028B99
:101A100010BDF0EE400AF5EEC00AF1EE10FA02DD5C
:101A2000B0EE600A7047B1EE600AFBE718B19FEDB7
:101A3000020A80ED000A70470000000018B1B3EE02
:101A4000060A80ED000A704770B52DED0C8B84B04E
:101A500006460C4615469FED990AF0EE408A9FED2A
:101A6000970AB0EE409A9FED950AF0EE40BA9FEDCE
:101A7000930AF0EE409A9FED910AB0EE40AA0EB1A3
:101A800004B11DB904B0BDEC0C8B70BD8C48FFF7E0
:101A9000CDFF8C48FFF7D2FF8A48D0ED000A9FEDBA
:101AA0008A1A60EE810AB0EE600A00F02DF9F0EEBD
:101AB000408A28EEA80AF0EE408A8248D0ED000A5B
:101AC000B0EE001A60EE810A9FED7F1A60EE810A87
:101AD000B0EE600A00F018F9B0EE409A29EE090A5B
:101AE000B0EE409ADFED790AB7EE000A00EEA80AE0
:101AF000DFED770A00EEC90ADFED760A20EE200A54
:101B0000754880ED000A6E4890ED000ADFED730A1B
:101B100080EE201AB7EE000A31EE000A20EE000A2D
:101B20006D48D0ED000A80EE801A6D4880ED001AF5
:101B300094ED000AB5EEC00AF1EE10FA0DD194ED65
:101B4000010AB5EEC00AF1EE10FA06D194ED020AD0
:101B5000B5EEC00AF1EE10FA46D09FED580AB0EE8D
:101B6000408A0020019002900390D4ED000A60EEBC
:101B7000A00A94ED011AD4ED011A41EE210A94ED68
:101B8000021AD4ED021A41EE210AB0EE600A00F00A
:101B9000A9F8B0EE408A94ED000A20EE080A8DED17
:101BA000010A94ED010A20EE080A8DED020A94ED77
:101BB000020A20EE080A8DED030ADDED010AF1EEBE
:101BC000600AB0EE600AFFF7FCFEF0EE409A9DED71
:101BD000031AF0EE410A9DED021AB0EE410AFFF73A
:101BE000FCFEB0EE40AA07E09FED340AF0EE409A0A
:101BF0009FED320AB0EE40AA95ED000AB5EEC00A9C
:101C0000F1EE10FA0DD195ED010AB5EEC00AF1EE34
:101C100010FA06D195ED020AB5EEC00AF1EE10FAFF
:101C20003CD0B0EE690A00F06FF8B0EE408AB0EE3A
:101C3000690AFFF7E2FEB0EE40DAB0EE4A0A00F0C1
:101C400063F8F0EE40AAB0EE4A0AFFF7D6FEB0EE17
:101C500040BA28EE2A0AD5ED010A20EE200AD5ED79
:101C6000000A0DEE200A68EE0B0A95ED021A00EE4E
:101C7000810AB0EE40CA95ED010A20EE0B0AD5EDBF
:101C8000020A0AEEE00AF0EE40CAF0EE6C0AB0EE8C
:101C90004C0AFFF7A2FEF0EE40BA03E09FED070A00
:101CA000F0EE40BAB0EE4A1AF0EE690AB0EE6B0AF6
:101CB000304609F0ABFA00BFE4E600000000000087
:101CC0003C0200204002002035FA8E3CC1BFAD3BF3
:101CD0009DF8C5362F7C1C4144020020506CC24A3E
:101CE0004802002010B52DED028BB0EE408AB0EE18
:101CF000480A09F06DF8B7EE001AC1EE000AB0EE1E
:101D0000600ABDEC028B10BD10B52DED028BB0EE5C
:101D1000408AB0EE480AFEF773FBBDEC028B10BDA3
:101D20002DE9F0412DED028B9AB00546B0EE408AC8
:101D30000E46174698460020179018901990149058
:101D4000159016904DB146B13FB1B8F1000F04D0D7
:101D5000B5EEC08AF1EE10FA05D100201AB0BDEC44
:101D6000028BBDE8F08196ED000A8DED170A96ED25
:101D7000010A8DED180A96ED020A8DED190A97ED0C
:101D8000000A8DED140A97ED010A8DED150A97ED05
:101D9000020A8DED160A17AA14A9284609F088F838
:101DA000402104A8FEF753FD00200090019002900E
:101DB0000390002417A904A80CF0D0FA00BF30E06B
:101DC00004A800EB041090ED000AD5ED000A20EE07
:101DD000200A04A800EB0410D0ED010A95ED011AC9
:101DE00000EE810A04A800EB0410D0ED020A95ED84
:101DF000021A00EE810A04A800EB0410D0ED030AD9
:101E000095ED031A00EE810A20EE080AF0EE000AB2
:101E100080EE201A684600EB840080ED001A601CFA
:101E2000C4B2042CCCDB002410E005EB840090ED60
:101E3000000A684600EB8400D0ED000A30EE200A6C
:101E400005EB840080ED000A601CC4B2042CECDBBE
:101E500028460CF029F9012080E7000010B5012286
:101E60001021024802F03CF810BD000000000240C2
:101E700010B500221021024802F032F810BD000017
:101E8000000002407047000010B5012211460248D0
:101E900002F026F810BD00000004024010B5002238
:101EA0000121024802F01CF810BD000000040240AD
:101EB00010B543781B021BB20478234300EE103A9E
:101EC000B8EEC01A1C4BD3ED001A21EE211A81ED99
:101ED000001AC3781B021BB28478234300EE103A29
:101EE000B8EEC01A144BD3ED001A21EE211A81ED81
:101EF000011A43791B021BB20479234300EE103A06
:101F0000B8EEC01A0C4BD3ED001A21EE211A81ED68
:101F1000021A037A1B04C47943EA04238479234315
:101F200000EE903AB8EE601ADFED041A21EE211AA5
:101F300082ED001A10BD00009001002000401C42FC
:101F4000704710B5044620460BF04DFA10BD10B591
:101F5000044620460AF0B0FB10BD00004278120291
:101F600012B203781A4300EE102AF8EEC00A144A9F
:101F700092ED001A60EE810AC1ED000AC2781202E9
:101F800012B283781A4300EE102AF8EEC00A0C4A07
:101F900092ED001A60EE810AC1ED010A4279120247
:101FA00012B203791A4300EE102AF8EEC00A044A6E
:101FB00092ED001A60EE810AC1ED020A704700003E
:101FC0009401002010B50024FFF75CFFFFF7B8FF75
:101FD00009F06CFA10B144F0800402E009F0CCF989
:101FE000044309F05BFC10B144F0400402E009F046
:101FF000DBFB0443204610BD2DE9FC4105460E469F
:102000001746002000900190FFF732FF922000F069
:10201000D1F806226946122000F0ACF8FFF71EFF47
:102020009DF80100000200B29DF8001040EA010492
:1020300000EE104AB8EEC00A4C48D0ED000A20EE7F
:10204000200A86ED000A9DF80300000200B29DF808
:10205000021040EA010400EE104AB8EEC00A4348FC
:10206000D0ED000A20EE200A86ED010A9DF8050059
:10207000000200B29DF8041040EA010400EE104A8C
:10208000B8EEC00A3948D0ED000A20EE200A86EDED
:10209000020AFFF703FF08226946002000F06AF8F1
:1020A000FFF7F2FE9DF800000F2838D19DF80300DD
:1020B000000200B29DF8021040EA010400EE104A4E
:1020C000B8EEC00A2A48D0ED000A20EE200A85EDBD
:1020D000000A9DF80500000200B29DF8041040EAD5
:1020E000010400EE104AB8EEC00A2148D0ED000A03
:1020F00020EE200A85ED010A9DF80700000200B2DB
:102100009DF8061040EA010400EE104AB8EEC00A3D
:102110001748D0ED000A20EE200A85ED020AFFF7ED
:10212000A7FEA22000F046F802226946222000F015
:1021300021F8FFF793FE9DF80000C0009DF8011004
:1021400040EA6114B4F5806F02DBA4F5006004B2CC
:1021500000EE104AF8EEC00AB4EE001AB3EE070A19
:1021600000EE810A87ED000ABDE8FC8190010020A5
:102170009401002070B506460C46154646F08000D6
:1021800000F018F806E0552000F014F82070641CE8
:10219000681EC5B2002DF6D170BD70B504460D465F
:1021A00044F0800000F006F8552000F003F8287095
:1021B00070BD000001B582B04FF47A70012301AA0E
:1021C00002A90090024803F003F99DF804000EBD37
:1021D000B809002010B502461378DB00547843EAB2
:1021E0006410B0F5806F02DBA0F5006318B200EE5A
:1021F000100AF8EEC00AB4EE001AB3EE070A00EEB9
:10220000810A81ED000A10BD70B505460C462846CE
:10221000FFF7D0FF2046FFF7CDFF70BD00BFFEE700
:1022200010B5024801F081F810BD0000F40800204C
:10223000F8B507460C4615461E46384600F030F8FD
:102240000746204600F02CF80446284600F028F8FF
:102250000546304600F024F806464FF400700D495C
:10226000086000208860C86008200861380A0A49B0
:1022700008704F70200A8870CC70280A08714D7160
:10228000300A8871CE716B460A460249034800F055
:1022900050FEF8BDA80E0020B4000020F408002075
:1022A0000146002000EE101AB8EEC00ADFED040A65
:1022B00020EE200ABDEEC00A10EE102A10B27047C0
:1022C00000401C3F10B5FE48C06C0068FD498842C4
:1022D00076D9FC4854380068F949C96C0968FA4A4B
:1022E000914201D1202169E0F549C96C0968F54A9C
:1022F000483A914201D1202160E0F149C96C096856
:10230000F14A6032914201D1202157E0EC49C96C79
:102310000968EC4A1832914201D120214EE0E84987
:10232000C96C0968E84A1832914201D1C91445E0E4
:10233000E349C96C0968E34A303A914201D1C914B2
:102340003CE0DF49C96C0968DF4A7832914201D12B
:10235000C91433E0DA49C96C0968DA4A303291426B
:1023600001D1C9142AE0D649C96C0968D64A30326D
:10237000914202D14FF4001120E0D149C96C0968A3
:10238000D04A183A914202D14FF4001116E0CC49DC
:10239000C96C0968CC4A9032914202D14FF40011C5
:1023A0000CE0C749C96C0968C64A4832914203D15A
:1023B0004FF4001102E003E04FF00061084070E1CB
:1023C000BF48C06C0068C049A831884276D9BD4872
:1023D00058380068BA49C96C0968BB4A914201D1B2
:1023E000202169E0B649C96C0968B64A483A914269
:1023F00001D1202160E0B249C96C0968B24A60325B
:10240000914201D1202157E0AD49C96C0968AD4A1C
:102410001832914201D120214EE0A949C96C0968C6
:10242000A94A1832914201D1C91445E0A449C96CA6
:102430000968A44A303A914201D1C9143CE0A0494C
:10244000C96C0968A04A7832914201D1C91433E0BD
:102450009B49C96C09689B4A3032914201D1C91429
:102460002AE09749C96C0968974A3032914202D1F3
:102470004FF4001120E09249C96C0968914A183A5A
:10248000914202D14FF4001116E08D49C96C0968E0
:102490008D4A9032914202D14FF400110CE08849EC
:1024A000C96C0968874A4832914203D14FF4001140
:1024B00002E003E04FF000610840F2E08048C06CA9
:1024C000006881494831884276D97F481038406891
:1024D0007B49C96C09687C4A914201D1202169E09D
:1024E0007749C96C0968774A483A914201D120215D
:1024F00060E07349C96C0968734A6032914201D146
:10250000202157E06E49C96C09686E4A1832914221
:1025100001D120214EE06A49C96C09686A4A183223
:10252000914201D1C91445E06549C96C0968654A01
:10253000303A914201D1C9143CE06149C96C096843
:10254000614A7832914201D1C91433E05C49C96CC7
:1025500009685C4A3032914201D1C9142AE05849D5
:10256000C96C0968584A3032914202D14FF40011C7
:1025700020E05349C96C0968524A183A914202D185
:102580004FF4001116E04E49C96C09684E4A90326A
:10259000914202D14FF400110CE04949C96C09681D
:1025A000484A4832914203D14FF4001102E003E05F
:1025B0004FF00061084074E043481038006840491B
:1025C000C96C0968404A914201D1202168E03C4928
:1025D000C96C09683B4A483A914201D120215FE029
:1025E0003749C96C0968384A6032914201D12021CB
:1025F00056E03349C96C0968324A1832914201D118
:1026000020214DE02E49C96C09682F4A18329142A9
:1026100001D1C91444E02A49C96C0968294A303AF1
:10262000914201D1C9143BE02549C96C0968264A89
:102630007832914201D1C91432E02149C96C09684C
:10264000204A3032914201D1C91429E01C49C96C99
:1026500009681D4A3032914202D14FF400111FE047
:102660001749C96C0968174A183A914202D14FF4C8
:10267000001115E01249C96C0968134A9032914261
:1026800002D14FF400110BE00D49C96C09680D4AE5
:102690004832914202D14FF4001101E04FF0006145
:1026A000084000286FD00648C06C00680549884281
:1026B0007BD90348C06C00680349884208D105E013
:1026C000B80900205864024010600240202068E0F1
:1026D000FE48C06C0068FE49884201D1202060E0BD
:1026E000FA48C06C0068FB49884201D1202058E0BC
:1026F000F648C06C0068F6496031884201D120205C
:102700004FE0F248C06C0068F2494839884201D174
:10271000C01446E0ED48C06C0068ED4918318842AD
:1027200001D1C0143DE0E948C06C0068E9491831A6
:10273000884201D1C01434E0E448C06C0068E44928
:102740007831884201D1C0142BE0E048C06C0068A9
:10275000E0493039884202D14FF4001021E0DB48D3
:10276000C06C0068DA493031884202D14FF4001061
:1027700017E0D648C06C0068D6493031884204D191
:102780004FF400100DE0DFE10FE0D048C06C0068AE
:10279000CF499031884202D14FF4001001E04FF050
:1027A0000060CB49091F08606AE1C848C06C006836
:1027B000C8494831884274D9C448C06C0068C549CA
:1027C0006039884201D1202066E0C048C06C0068B2
:1027D000BF49884201D120205EE0BC48C06C00683F
:1027E000BC49884201D1202056E0B848C06C00683E
:1027F000B7496031884201D120204DE0B348C06C18
:102800000068B4494839884201D1C01444E0AF4857
:10281000C06C0068AE491831884201D1C0143BE059
:10282000AA48C06C0068AB491831884201D1C01475
:1028300032E0A648C06C0068A5497831884201D1D1
:10284000C01429E0A148C06C0068A2493039884210
:1028500002D14FF400101FE09C48C06C00689C49F6
:102860003031884202D14FF4001015E09748C06C17
:10287000006898493031884202D14FF400100BE0D3
:102880009248C06C006892499031884202D14FF45E
:10289000001001E04FF000608D4908390860EFE05A
:1028A000FFE78A48C06C00688A491839884274D9A1
:1028B0008648C06C006887496039884201D1202071
:1028C00066E08248C06C00688149884201D12020BE
:1028D0005EE07E48C06C00687E49884201D12020BD
:1028E00056E07A48C06C006879496031884201D16D
:1028F00020204DE07548C06C006876494839884210
:1029000001D1C01444E07148C06C006870491831AE
:10291000884201D1C0143BE06C48C06C00686D492E
:102920001831884201D1C01432E06848C06C006898
:1029300067497831884201D1C01429E06348C06CEE
:10294000006864493039884202D14FF400101FE01A
:102950005E48C06C00685E493031884202D14FF455
:10296000001015E05948C06C00685A49303188425F
:1029700002D14FF400100BE05448C06C0068544979
:102980009031884202D14FF4001001E04FF0006016
:1029900050497039C86073E0FFE74C48C06C00686C
:1029A0004C496039884201D1202066E04748C06C1C
:1029B00000684749884201D120205EE04348C06C4E
:1029C00000684449884201D1202056E03F48C06C4D
:1029D00000683F496031884201D120204DE03B48EA
:1029E000C06C00683B494839884201D1C01444E0BA
:1029F0003648C06C006836491831884201D1C0148D
:102A00003BE03248C06C006832491831884201D13D
:102A1000C01432E02D48C06C00682D4978318842DE
:102A200001D1C01429E02948C06C00682949303917
:102A3000884202D14FF400101FE02448C06C0068A7
:102A400023493031884202D14FF4001015E01F486D
:102A5000C06C00681F493031884202D14FF4001029
:102A60000BE01A48C06C006819499031884202D1C5
:102A70004FF4001001E04FF0006016497039886093
:102A80001548007800F0020078B11348007820F073
:102A90000200114908700846007840F004000870F0
:102AA000012211460D4801F01BFA0D48007800F094
:102AB0000200E0B10A48007820F0020008490870DE
:102AC0000846007840F0040008700BE0B8090020C8
:102AD0001064024070600240E900002000040240DF
:102AE000EA00002001221021184801F0F9F91848E5
:102AF000007800F0020078B11548007820F002005C
:102B0000134908700846007840F00400087001225C
:102B100010210E4801F0E4F90AF05AF90D48007846
:102B200000F0040080B10B48007820F0040009494F
:102B300008700846007840F00800087006480068F1
:102B400040F001000449086010BD00000000024090
:102B5000EB000020E9000020103C0140014608780D
:102B600010381823B0FBF3F20848805CC865032ACC
:102B700005D908686FF30900001D886503E008683F
:102B80006FF309008865886D70470000F20D010839
:102B9000014600208A6A8B69CBB932B1012A0DD077
:102BA000022A03D0032A10D10EE000BFCB6A03F043
:102BB0008073B3F1807F00D1012007E0CB6AB3F1CD
:102BC000C07F00D1012001E000E000BF34E08B694C
:102BD000B3F5005F1AD132B1012A07D0022A03D01F
:102BE000032A11D10AE000BF01200EE0CB6A03F0F6
:102BF0008073B3F1807F00D1012006E0CB6AB3F18E
:102C0000C07F00D1012000E000BF15E032B1012AF1
:102C100005D0022A04D0032A0CD103E000BF00BF74
:102C2000012008E0CB6A03F08073B3F1807F00D10C
:102C3000012000E000BF00BF7047704710B50120C1
:102C400001F040F810BD10B5082001F03BF810BDB0
:102C500010B5102001F036F810BD10B5202001F09D
:102C600031F810BD7047000010B5002201B909E02D
:102C7000012901D10A0205E0022901D10A0201E07D
:102C80004FF440720E4B1B6823F440730C4C2360CE
:102C900023461B681343236023461B6823F0F80375
:102CA000236023461B68022444EAC0042343044CE7
:102CB000236023461B6843F48033236010BD00006B
:102CC000103C02401C48006800F40070B0B11A4883
:102CD000006820F400701849086000BF08460068CA
:102CE00040F4006008600846006820F40060086056
:102CF00000BF0846006840F4007008600E48006895
:102D000000F48060B0B10C48006820F480600A498B
:102D1000086000BF0846006840F48050086008461C
:102D2000006820F48050086000BF0846006840F446
:102D30008060086070470000003C02400A4A126848
:102D400022F44072084B1A601A46126842F00402DC
:102D50001A601A4612684FF4803343EA00231A437C
:102D6000014B1A6070470000103C0240074A12688D
:102D700022F44072054B1A601A4612681A601A460D
:102D8000126842F001021A6001707047103C024064
:102D900010B50949096821F44071074C21602146AA
:102DA000096841F4407121602146096841F0010140
:102DB00021600260436010BD103C0240084A126866
:102DC00022F44072064B1A601A46126842F480726E
:102DD0001A601A46126842F001021A6001807047B8
:102DE000103C0240084A126822F44072064B1A60F6
:102DF0001A46126842F400721A601A46126842F0CB
:102E000001021A6001607047103C024023480068CC
:102E100000F0100040B12248C06940F01000204985
:102E2000C86110201D4908601C48006800F020009F
:102E300040B11B48C06940F008001949C861202012
:102E4000164908601548006800F0400040B1144879
:102E5000C06940F004001249C86140200F49086071
:102E60000E48006800F0800040B10D48C06940F095
:102E700002000B49C86180200849086007480068C3
:102E800000F0020040B10648C06940F0200004494B
:102E9000C861022001490860704700000C3C0240F4
:102EA000AC14002070B50446002500201449C86108
:102EB00001F01CF8054609E0601C38B124B101F0AE
:102EC00015F8401BA04201D9032070BD0D480068D1
:102ED00000F480300028EFD10A48006800F00100BB
:102EE00010B10120074908600648006800F0F200B0
:102EF00018B1FFF78BFF0120E7E70020E5E70000AE
:102F0000AC1400200C3C024010B5024692F8203070
:102F1000012B01D0022B06D11068406908431468C8
:102F20006061002010BD506A40F480205062012092
:102F3000F8E7F0B504460D461E4694F82070206868
:102F40008368A86800B900E000BF012F01D0022FFC
:102F50007CD103F0806030B903F0006018B903F051
:102F60008050002873D0C3F30161022905D9606A3B
:102F700040F4000060620120F0BD01208840306014
:102F8000A86860B9B5F800C0E86840EA4C5C206801
:102F900000F5C07000EB0110C0F800C00FE0D5E9EB
:102FA00001C040EACC00D5F80CC040EA0C00D4F8CF
:102FB00000C00CF5C07C0CEB011CCCF80000D5F86F
:102FC00010C0206800F5C07000EB0110C0F804C00C
:102FD000287D01280ED1206800F5C07000EB01109B
:102FE000406840F4807C206800F5C07000EB011060
:102FF000C0F804C0D079000692F806C040EA0C4040
:1030000092F805C040EA0C2C10794CEA000C2068BC
:1030100000F5C07000EB0110C0F80CC0D0780006BD
:1030200092F802C040EA0C4092F801C040EA0C203D
:1030300092F800C040EA0C00D4F800C00CF5C07C47
:103040000CEB011CCCF80800206801E016E00FE052
:1030500000F5C07000EB0110006840F0010C206822
:1030600000F5C07000EB0110C0F800C0002083E73D
:10307000606A40F40010606201207DE7606A40F4FD
:1030800080206062012077E7F0B504460A46216897
:1030900094F82050012D01D0022D7ED1424901F536
:1030A0000071086840F001000860086820F47C5056
:1030B00008600868566A40EA06200860107D00F043
:1030C0001F06012000FA06F3C8699843C861A1F5FC
:1030D0000071D069C8B9D1F80C029843C1F80C024C
:1030E000908880B2968940EA064601F510705769CB
:1030F00040F83760108880B2168940EA064601F52C
:103100001070576900EBC7004660D069012819D1DB
:10311000D1F80C021843C1F80C02908880B21688CE
:1031200040EA064601F51070576940F8376090890B
:1031300080B2168940EA064601F51070576900EB27
:10314000C7004660906928B9D1F804029843C1F8D5
:10315000040204E0D1F804021843C1F80402106923
:1031600028B9D1F814029843C1F8140204E0D1F848
:1031700014021843C1F81402106A012804D1D1F8CE
:103180001C021843C1F81C02D1F8000220F0010013
:10319000C1F800020020F0BDFFE7606A40F4802023
:1031A00060620120F7E7000000640040704770B5DE
:1031B000044694F82050012D01D0022D7CD151B944
:1031C0002068C06800F0030080B9606A40F4001015
:1031D0006062012070BD2068006900F0030028B91A
:1031E000606A40F4001060620120F3E7206800F597
:1031F000D87000EB0110006800F004009060906847
:1032000040B9206800F5D87000EB01100068400D4F
:10321000106007E0206800F5D87000EB011000682E
:10322000C0085060206800F5D87000EB01100068FD
:1032300000F002004008D060206800F5D87000EB74
:103240000110406800F00F001061206800F5D87090
:1032500000EB0110406800F47F40000A9061206894
:1032600000F5D87000EB01104068000C5061206838
:1032700000F5D87000EB011080681870206800F528
:10328000D87000EB0110806800F47F40000A58708D
:10329000206800F5D87000EB0110806800F47F0012
:1032A000000C9870206800F5D87000EB0110806861
:1032B000000ED870206800E031E000F5D87000EB17
:1032C0000110C0681871206800F5D87000EB01107B
:1032D000C06800F47F40000A5871206800F5D8707B
:1032E00000EB0110C06800F47F00000C98712068AA
:1032F00000F5D87000EB0110C068000ED87131B92C
:103300002068C06840F020002668F06005E0206872
:10331000006940F020002668306100205AE7606AAA
:1033200040F480206062012054E72DE9F05F0446FC
:103330000025206846692068D0F8049020688768D6
:103340002068D0F80CA02068D0F810B02068D0F821
:10335000188006F00100002855D007F00100C0B128
:1033600001202168886007F0020018B1204600F0B3
:103370000AFB0EE007F0040010B145F4006508E018
:1033800007F0080010B145F4805502E0204600F037
:10339000F9FA07F48070C8B14FF480702168886032
:1033A00007F4007018B1204600F0EFFA0EE007F4C1
:1033B000806010B145F4005508E007F4006010B1DA
:1033C00045F4804502E0204600F0DEFA07F4803044
:1033D000C8B14FF480302168886007F4003018B11C
:1033E000204600F0D4FA0EE007F4802010B145F436
:1033F000004508E007F4002010B145F4803502E0F4
:10340000204600F0C3FA06F0080038B10AF01000B8
:1034100020B145F4007510202168C86006F0040052
:1034200040B10AF0080028B108202168C860204691
:1034300000F006FA06F0020038B12068C06800F01B
:10344000030010B1204600F0FDF906F0400038B14D
:103450000BF0100020B145F4806510202168086150
:1034600006F0200040B10BF0080028B108202168C8
:103470000861204600F054FA06F0100038B12068C8
:10348000006900F0030010B1204600F04AFA06F48B
:10349000003040B109F0100028B1102021684860C8
:1034A000204600F03FFA06F4803040B109F00800F1
:1034B00028B1082021684860204600F069FA06F427
:1034C000004088B309F0040078B306F4807020B19E
:1034D00008F0010008B145F0010506F4007020B1C4
:1034E00008F0020008B145F0020506F4806020B142
:1034F00008F0040008B145F0040506F40060A0B12E
:1035000008F0700088B108F07000402817D006DC81
:1035100010280BD020280CD0302819D10CE05028CE
:1035200010D0602814D110E01DE019E045F0080526
:103530000FE045F010050CE045F0200509E045F0EE
:10354000400506E045F0800503E045F4807500E0A5
:1035500000BF00BF2068806920F07000216888618A
:103560000420216848602DB1606A284360622046CB
:10357000FFF71CFEBDE8F09F70B504460CB90120B2
:1035800070BD94F8200010B9204600F0AFF8206814
:10359000006820F002002168086000F0A7FC0546E2
:1035A0000DE000F0A3FC401B0A2808D9606A40F433
:1035B00000306062052084F820000120E0E72068E8
:1035C000406800F002000028EBD12068006840F05D
:1035D00001002168086000F089FC05460DE000F05C
:1035E00085FC401B0A2808D9606A40F400306062FC
:1035F000052084F820000120C2E72068406800F020
:1036000001000028EBD0207E012806D12068006848
:1036100040F080002168086005E02068006820F024
:10362000800021680860607E012806D1206800685B
:1036300040F040002168086005E02068006820F044
:10364000400021680860A07E012806D1206800683B
:1036500040F020002168086005E02068006820F044
:10366000200021680860E07E012806D120680068FB
:1036700020F010002168086005E02068006840F034
:10368000100021680860207F012806D120680068AA
:1036900040F008002168086005E02068006820F01C
:1036A000080021680860607F012806D12068006852
:1036B00040F004002168086005E02068006820F000
:1036C000040021680860D4E9020108432169084325
:1036D000616908436168491E08432168C861002088
:1036E0006062012084F82000002049E710B586B010
:1036F0000446142101A8FDF7AAF84B492068884226
:1037000041D14A480068401C4849086008460068A2
:1037100001280FD100BF002000904548006840F00C
:103720000070434908600846006800F0007000908F
:1037300000BF00BF00BF002000903D481038006867
:1037400040F008003A49103908600846006800F067
:103750000800009000BF00BF0320019002200290EB
:1037600000200390032004900920059001A931480E
:1037700000F0B6FA00220621142000F0E7FF142022
:1037800000F0D4FF4DE02C492068884249D100BFA9
:10379000002000902648006840F0806024490860BE
:1037A0000846006800F08060009000BF00BF1F481E
:1037B0000068401C1D4908600846006801280FD1B8
:1037C00000BF002000901A48006840F000701849BF
:1037D00008600846006800F00070009000BF00BF5D
:1037E00000BF0020009012481038006840F002002E
:1037F0000F49103908600846006800F00200009088
:1038000000BF00BF4FF482500190022002900020C0
:103810000390032004900920059001A9074800F0B7
:103820005FFA06B010BD00000064004030000020C8
:1038300040380240000C0240006800400004024092
:103840007047000010B58AB0044601AB03AA0021FE
:103850002046FFF7ACFC0398A0F20120072857D2BE
:10386000DFE800F00405060708090A0000BF00BFF2
:1038700000BF00BF00BF00BF0398401E264908706C
:103880000846007800EB8000244931F8100000B2AF
:103890002149097801EB8101204A02EB41010881AD
:1038A0009DF805009DF8041040EA01201A490978A6
:1038B00001EB810122F811009DF807009DF8061028
:1038C00040EA012000B21449097801EB810102EBC2
:1038D000410148809DF809009DF8081040EA012048
:1038E00000B20D49097801EB810102EB41018880AA
:1038F0009DF80A000849097801EB810102EB4101BA
:10390000887105490978491CC8B208F0FDFE00E03D
:1039100000BF00BF0AB010BDBC000020480E002050
:1039200070477047704770B5044694F8200001282E
:1039300022D1022084F820002068006820F00100D5
:103940002168086000F0D2FA05460DE000F0CEFADA
:10395000401B0A2808D9606A40F4003060620520E4
:1039600084F82000012070BD2068406800F001004C
:103970000028EBD16062F6E7606A40F400206062E4
:103980000120F0E7704770477047704770477047F5
:10399000704700002DE9F0410446002500F0A6FA2A
:1039A000074614B90120BDE8F081606A00B100BF8C
:1039B00000BF002084F8340000BF022084F83500E6
:1039C0002068006820F00100216808600AE000F02B
:1039D0008DFAC01B052805D920206065032084F8D6
:1039E0003500E0E72068006800F001000028EED113
:1039F0002068056821480540D4E901010843E168D1
:103A000008432169084361690843A1690843E169E2
:103A10000843216A08430543606A042803D1D4E9B6
:103A20000B0108430543206805602068456925F0BF
:103A30000705606A0543606A04280DD1A06A054342
:103A4000E06A48B12046FFF7A3F828B1402060653E
:103A5000012084F83500A6E7206845612046FFF77D
:103A60007DF8064694F85C103F208840B060002046
:103A70006065012084F83500002094E73F8010F055
:103A80002DE9F04104460E460127002500BF2548D8
:103A9000007E012802D10220BDE8F08101202149E9
:103AA000087600BF4CF25030FFF7FCF90746002FB4
:103AB00031D1401E3060206801280FD1207C616820
:103AC000FFF73CF94CF25030FFF7ECF90746164887
:103AD000006820F00400144908601AE0A56812E0AC
:103AE000217C2846FFF7C0F84CF25030FFF7DAF996
:103AF00007460D48006820F0FA000B4908600FB136
:103B0000356005E06D1CD4E902100844A842E7D8EE
:103B100000BFFFF7D7F800BF00200249087600BFBA
:103B20003846B9E7AC140020103C02400348006856
:103B300040F000400149086000207047103C0240FE
:103B40002DE9F04106460F4614461D464FF0010888
:103B500000BF1F48007E012802D10220BDE8F0818D
:103B600001201B49087600BF4CF25030FFF79AF94C
:103B70008046B8F1000F23D126B9E1B23846FFF7ED
:103B8000F5F812E0012E04D1A1B23846FFF716F97C
:103B90000BE0022E04D121463846FFF723F904E05A
:103BA00022462B463846FFF7F3F84CF25030FFF729
:103BB00079F980460748006820F00100054908604F
:103BC00000BF00200249087600BF4046C6E700005B
:103BD000AC140020103C024000200949096801F0A3
:103BE000004159B10749064A0C3A11600649116073
:103BF0000349096801F0004101B10120704700004C
:103C0000103C024023016745AB89EFCD10B5044657
:103C1000102C14D1092008F077FD2248007840F0DC
:103C20000100204908702048007840F001001E493A
:103C300008701E480078A0B309F0CAF831E0202CC3
:103C40000ED1082008F060FD1948007840F001000E
:103C5000174908701548007818B309F0B9F820E042
:103C6000082C09D10A2008F04FFD1248007840F0D6
:103C700001001049087014E0012C12D10BF098FBE0
:103C800001280ED00C490D4800680AF079FD0A4859
:103C9000006830B120070A490860BFF34F8FBFF3B7
:103CA0006F8F10BDEA000020EB000020ED00002027
:103CB000E9000020EC00002060010020C40000208A
:103CC00004ED00E010B5044604480068204020B12F
:103CD000024804602046FFF799FF10BD143C0140E4
:103CE000F8B502460B460025002400200021DCE048
:103CF000012606FA01F51E6806EA0504AC4273D1F6
:103D00005E68022E02D05E68122E13D1CF0802F137
:103D1000200656F827004E07F70E0F26BE40B04388
:103D20004F07FF0E1E69BE403043CF0802F1200648
:103D300046F8270010684F000326BE40B0431E79A6
:103D400006F003064F00BE40304310605E68012E4F
:103D500008D05E68022E05D05E68112E02D05E6823
:103D6000122E13D190684F000326BE40B0434F007F
:103D7000DE68BE4030439060506801268E40B043FC
:103D80001E79C6F300168E4030435060D0684F0055
:103D90000326BE40B0434F009E68BE403043D06013
:103DA0005E6806F08056B6F1805F7DD100BF0026C8
:103DB0000096404E366846F480463E4F3E603E4692
:103DC000366806F48046009600BF00BF3A4E8F0862
:103DD00056F827008E07370F0F26BE40B043374EE8
:103DE000B24202D1002624E05EE0354EB24201D15B
:103DF00001261EE0334EB24201D1022619E0324EB6
:103E0000B24201D1032614E0304EB24201D1042661
:103E10000FE02F4EB24201D105260AE02D4EB242EC
:103E200001D1062605E02C4EB24201D1072600E062
:103E300008268F073F0FBE4030431F4E8F0846F8BD
:103E40002700264E3068A0435E6806F48036B6F53B
:103E5000803F00D12043214E3060361D3068A043A2
:103E60005E6806F40036B6F5003F00D120431B4ED5
:103E7000361D3060361D3068A0435E6806F480163B
:103E8000B6F5801F00D12043144E08363060361D31
:103E90003068A0435E6806F40016B6F5001F00D136
:103EA00020430E4E0C363060491C1029FFF420AF21
:103EB000F8BD0000443802400838014000000240CC
:103EC0000004024000080240000C024000100240C2
:103ED0000014024000180240001C0240003C014057
:103EE0000AB1816101E00B048361704701480068F9
:103EF00070470000BC01002070B504460CB90120D9
:103F000070BD94F83D0028B9002084F83C0020469C
:103F100000F0FAFA242084F83D002068006820F0C0
:103F200001002168086000F01BFE05465C496068DE
:103F3000884206D85B48854201D2012007E0002074
:103F400005E05948854201D2012000E00020012807
:103F500000D1D5E75548B5FBF0F62068406820F061
:103F60003F003043216848604D496068884201D86D
:103F7000701C07E04FF4967070434FF47A71B0FBF9
:103F8000F1F0401C2168096A21F03F0108432168D3
:103F9000086243496068884214D8681E6168490015
:103FA000B0FBF1F0401CC0F30B00042801D2042048
:103FB0003DE0681E61684900B0FBF1F0401CC0F3B1
:103FC0000B0034E0A06838B9681E616801EB41015C
:103FD000B0FBF1F0401C0AE0681E616801EBC10211
:103FE00002EB0111B0FBF1F0401C40F48040C0F343
:103FF0000B0008B901201AE0A06848B9681E616882
:1040000001EB4101B0FBF1F0401CC0F30B000CE0F0
:10401000681E616801EBC10202EB0111B0FBF1F017
:10402000401CC0F30B0040F4804040F40040216885
:10403000C9694CF6FF72914308432168C861D4E90D
:10404000070108432168096821F0C001084321687D
:104050000860D4E9031008432168896848F2FF32F8
:104060009143084321688860D4E905010843216829
:10407000C96821F0FF0108432168C8602068006812
:1040800040F001002168086000202064202084F8AE
:104090003D000020206384F83E0000BF30E70000B0
:1040A000A086010080841E0000093D0040420F00F0
:1040B0002DE9FC5F04460F4690469946DDE90CABBE
:1040C0000E9EFFF713FF054694F83D00202870D19F
:1040D00019230122B0492046009502F039F910B1A8
:1040E0000220BDE8FC9F00BF94F83C00012801D1EC
:1040F0000220F6E7012084F83C0000BF2068006839
:1041000000F0010028B92068006840F00100216833
:1041100008602068006820F40060216808602220A0
:1041200084F83D00402084F83E0000202064C4F85C
:1041300024A0A4F82AB0608D20859848E0624B4600
:10414000424639462046CDE9006501F0D1FF08B16D
:104150000120C6E7208D88B900BF002001902068AB
:104160004069019020688069019000BF00BF20680D
:10417000006840F400702168086040E0208D01284C
:1041800018D12068006820F480602168086000BFB2
:1041900000200190206840690190206880690190AA
:1041A00000BF00BF2068006840F40070216808600C
:1041B00025E0EFE0208D022816D12068006820F469
:1041C0008060216808602068006840F40060216811
:1041D000086000BF002001902068406901902068BD
:1041E0008069019000BF0AE000BF002001902068B4
:1041F0004069019020688069019000BF00BFBAE06B
:10420000208D03287ED8208D012815D12A463146DD
:10421000204602F042F908B1012062E720680069F7
:10422000616A0870606A401C6062208D401E2085B3
:10423000608D401E60859EE0208D02282AD1334685
:10424000002257492046009502F082F808B101206B
:1042500047E72068006840F4007021680860206823
:104260000069616A0870606A401C6062208D401EAF
:104270002085608D401E608520680069616A087035
:10428000606A401C6062208D401E2085608D401E4B
:10429000608570E03346002241492046009502F0D7
:1042A00057F808B101201CE72068006820F48060FE
:1042B0002168086020680069616A0870606A401CB3
:1042C0006062208D401E2085608D401E60853346D3
:1042D000002233492046009502F03AF808B1012047
:1042E000FFE62068006840F40070216808602068DC
:1042F0000069616A0870606A401C6062208D401E1F
:10430000208500E010E0608D401E60852068006917
:10431000616A0870606A401C6062208D401E2085C2
:10432000608D401E608526E02A463146204602F018
:10433000B4F808B10120D4E620680069616A087009
:10434000606A401C6062208D401E2085608D401E8A
:10435000608520684069C0F3800060B12068006912
:10436000616A0870606A401C6062208D401E208572
:10437000608D401E6085208D00287FF441AF202095
:1043800084F83D00002084F83E0000BF84F83C0023
:1043900000BFA6E60220A4E6020010000000FFFF16
:1043A000040001002DE9FC5F04460F469046994643
:1043B000DDE90CAB0E9EFFF799FD054694F83D0034
:1043C00020287DD1192301224D492046009501F076
:1043D000BFFF10B10220BDE8FC9F00BF94F83C0075
:1043E000012801D10220F6E7012084F83C0000BF3B
:1043F0002068006800F0010028B92068006840F0DB
:104400000100216808602068006820F400602168CD
:104410000860212084F83D00402084F83E00002000
:104420002064C4F824A0A4F82AB0608D2085354803
:10443000E0624B46424639462046CDE9006501F030
:10444000F3FE08B10120C6E731E02A463146204696
:1044500002F063F850B1206C042805D12068006890
:1044600040F40070216808600120B4E7606A0078B9
:1044700021680861606A401C6062208D401E2085B2
:10448000608D401E608520684069C0F3800070B177
:10449000208D60B1606A007821680861606A401C04
:1044A0006062208D401E2085608D401E6085208DBD
:1044B0000028CAD12A463146204601F01BFF00E001
:1044C0001CE050B1206C042805D12068006840F43D
:1044D00000702168086001207DE72068006840F4D2
:1044E000007021680860202084F83D00002084F8D6
:1044F0003E0000BF84F83C0000BF6CE702206AE782
:10450000020010000000FFFF10B586B00446142121
:1045100001A8FCF79CF92A49206888424DD100BFC8
:10452000002000902748006840F0040025490860FA
:104530000846006800F00400009000BF00BF00BF04
:10454000002000900846006840F00100086008461E
:10455000006800F00100009000BF00BF4815019006
:104560001220029001200390032004900420059063
:1045700001A91548FFF7B4FB4FF480700190122099
:10458000029000200390032004900420059001A9CC
:104590000E48FFF7A5FB00BF00200090094810302F
:1045A000006840F4000007491031086008460068C0
:1045B00000F40000009000BF00BF06B010BD000076
:1045C000005C004030380240000802400000024019
:1045D00003480068034909780844014908607047A6
:1045E000BC010020C401002010B50D48006840F453
:1045F00000700B4908600846006840F4806008605D
:104600000846006840F480700860032000F0DCF881
:104610000F2000F007F800F05FF8002010BD000048
:10462000003C02402DE9F04188B004460027B8461E
:1046300000BF002001902348006840F0200021497D
:1046400008600846006800F02000019000BF00BF2D
:1046500002A903A800F05CFA069F1FB900F080FAD7
:10466000054602E000F07CFA45001748B5FBF0F083
:10467000A0F1010815481649086040F2E7311448D6
:10468000C160C0F80480002101618160816100F097
:10469000E0FF064696B90E4801F081F806466EB96D
:1046A000372000F043F8102C07D200222146372093
:1046B00000F04CF80748046000E00126304608B0DE
:1046C000BDE8F0814038024040420F000014004035
:1046D000F00C0020C001002008B500BF00200090B1
:1046E0001148006840F480400F490860084600689F
:1046F00000F48040009000BF00BF00BF0020009089
:10470000081F006840F08050091F086008460068D4
:1047100000F08050009000BF00BF00220F21901ECB
:1047200000F014F808BD0000443802400146084675
:10473000002809DB00F01F0301229A4043099B0077
:1047400003F1E023C3F8002100BF70472DE9F05FBB
:1047500080460D461646002706F028F907463946DA
:104760002A46334601F00700C0F1070ABAF1040FE8
:1047700002D94FF0040A01E0C0F1070AD14600F166
:10478000040ABAF1070F02D24FF0000A01E0A0F1CB
:10479000030AD4464FF0010A0AFA09FAAAF1010AFB
:1047A0000AEA020A0AFA0CFA4FF0010B0BFA0CFBA8
:1047B000ABF1010B0BEA030B4AEA0B04214640461E
:1047C00006F0FCF8BDE8F09F00BF00F00702064BC2
:1047D00019684FF6FF031940044B0B4343EA0221CB
:1047E000014B196000BF70470CED00E00000FA05B6
:1047F000F8B5044600250026207800F0010020B915
:10480000207800F0040004282FD100205B4988663E
:10481000FFF76CFB054606E0FFF768FB401B02282C
:1048200001D90320F8BD56480068C0F3C0600028D5
:10483000F2D160688101207A41EA007050498431E8
:10484000086001204D498866FFF750FB054606E0E9
:10485000FFF74CFB401B022801D90320E2E7484840
:104860000068C0F3C0600028F2D0207800F0020099
:1048700002287DD100BF00200090414840300068F0
:1048800040F080503E49403108600846006800F022
:104890008050009000BF00BF3A48006840F480702C
:1048A00038490860FFF722FB054606E0FFF71EFBCC
:1048B000401B022801D90320B4E73248006800F405
:1048C00080700028F2D02E487030006800F44076E6
:1048D0004EB3A08900F44070B04224D02848703014
:1048E000006820F440760120274908600020086015
:1048F000234870300660006800F0010098B1FFF7AF
:10490000F5FA054608E0FFF7F1FA401B41F288315D
:10491000884201D9032085E7194870300068C0F348
:1049200040000028EFD000BFA08900F44070B0F52F
:10493000407F0CD112480830006820F4F810134A68
:10494000E168114008430E490831086007E00C484F
:104950000830006820F4F810094908310860084858
:1049600070300068A189C1F30B010843044900E0DD
:1049700002E07031086000BF002053E700004742AA
:104980000038024000700040400E4742FFFCFF0F1D
:1049900070B504460D460CB9012070BD584800683A
:1049A00000F00F00A84209D255490D700846006872
:1049B00000F00F00A84201D00120EEE7207800F0BF
:1049C000020002281DD1207800F00400042805D13F
:1049D0004C48006840F4E0504A490860207800F0F4
:1049E0000800082805D14748006840F46040454960
:1049F00008604448006820F0F000A168084341497D
:104A00000860207800F00100A8B36068012807D191
:104A10003C4808380068C0F34040B8B90120BCE702
:104A20006068022802D06068032807D1354808383A
:104A30000068C0F3406048B90120AEE7314808384B
:104A40000068C0F3400008B90120A6E72D480068BF
:104A500020F00300616808432A490860FFF746FA1E
:104A6000064609E0FFF742FA801B41F2883188428E
:104A700002D9032091E707E02248006800F00C000B
:104A80006168B0EB810FEDD11D48006800F00F00A8
:104A9000A84209D91A490D700846006800F00F00B5
:104AA000A84201D0012078E7207800F00400042813
:104AB00007D11448006820F4E050E1680843114928
:104AC0000860207800F00800082808D10D48006828
:104AD00020F46040216940EAC1000A49086000F002
:104AE0005FF808490968C1F30311074A515CC840DF
:104AF000064908600F20FFF795FD00204DE70000F4
:104B0000003C024008380240740D010834000020C7
:104B10000F2202600D4A126802F0030242600B4A43
:104B2000126802F0F0028260084A126802F4E05251
:104B3000C260064A126802F46042D2080261044A66
:104B4000126802F00F020A60704700000838024045
:104B5000003C02400148006870470000340000201B
:104B600000B5FFF7F7FF04490968C1F38221034A42
:104B7000515CC84000BD000008380240840D0108A7
:104B800000B5FFF7E7FF04490968C1F34231034A62
:104B9000515CC84000BD000008380240840D010887
:104BA0002DE9F047002400250026A146254800688D
:104BB00000F00C0020B1042805D008283AD105E007
:104BC000DFF8849039E0DFF8849036E01D48001F5C
:104BD000006800F03F041B48001F006800F48000DC
:104BE00078B11A481749091F0968C1F38811A0FB59
:104BF00001700146224600233846FBF73BFC054680
:104C00000EE011480F49091F0968C1F38811A0FB84
:104C100001700146224600233846FBF72BFC05466F
:104C20000848001F0068C0F30140401C4600B5FB67
:104C3000F6F902E0DFF8109000BF00BF4846BDE87B
:104C4000F0870000083802400024F400001BB70081
:104C5000F8B504460CB90120F8BD207800F0010039
:104C6000002874D0F948006800F00C0004280DD02A
:104C7000F648006800F00C00082813D1F348001F24
:104C8000006800F48000B0F5800F0BD1EF480838C1
:104C90000068C0F34040002859D06068002856D111
:104CA0000120D9E700BF6068B0F5803F08D1E74830
:104CB0000838006840F48030E449083908601EE094
:104CC0006068B0F5A02F0DD1E0480838006840F4C6
:104CD0008020DE49083908600846006840F48030CA
:104CE00008600CE0D9480838006820F48030D749C3
:104CF000083908600846006820F48020086000BF7A
:104D0000606890B1FFF7F2F8054606E0FFF7EEF8AD
:104D1000401B642801D903209EE7CC48083800686E
:104D2000C0F340400028F1D011E0FFF7DFF805465E
:104D300006E0FFF7DBF8401B642801D903208BE76E
:104D4000C24808380068C0F340400028F1D12078FC
:104D500000F0020002285FD1BC48006800F00C009F
:104D600058B1BA48006800F00C0008281CD1B748B8
:104D7000001F006800F48000B0B9B448083800682B
:104D8000C0F3400020B1E068012801D0012063E7B2
:104D9000AE480838006820F0F800216940EAC100F8
:104DA000AA490839086037E0E06800B30120A84943
:104DB0000860FFF79BF8054606E0FFF797F8401BF1
:104DC000022801D9032047E7A04808380068C0F34B
:104DD00040000028F1D09D480838006820F0F80015
:104DE000216940EAC10099490839086014E00020AF
:104DF00097490860FFF77AF8054606E0FFF776F86E
:104E0000401B022801D9032026E790480838006893
:104E1000C0F340000028F1D1207800F008000828F5
:104E20002CD16069A8B101208A490860FFF75EF8BB
:104E3000054606E0FFF75AF8401B022801D9032077
:104E40000AE782486C300068C0F340000028F1D0C7
:104E500014E000207F490860FFF748F8054606E0A7
:104E6000FFF744F8401B022801D90320F4E67748F5
:104E70006C300068C0F340000028F1D1207800F0C9
:104E80000400042870D1002670483830006800F013
:104E9000805090B900BF002000906C483830006806
:104EA00040F080506949383108600846006800F0D9
:104EB0008050009000BF00BF01266748006800F4E2
:104EC0008070B0B96448006840F48070624908603E
:104ED000FFF70CF8054606E0FFF708F8401B02282C
:104EE00001D90320B8E65C48006800F4807000280F
:104EF000F2D000BFA068012808D15448683000688B
:104F000040F001005149683108601DE0A0680528A3
:104F10000DD14E486830006840F004004B496831BC
:104F200008600846006840F0010008600CE047484F
:104F30006830006820F00100444968310860084684
:104F4000006820F00400086000BFA068A8B1FEF768
:104F5000CDFF054609E0FEF7C9FF401B41F288314D
:104F6000884202D9032077E626E038486830006896
:104F7000C0F340000028EED013E0FEF7B7FF05466F
:104F800008E0FEF7B3FF401B41F28831884201D9A7
:104F9000032061E62D4868300068C0F34000002817
:104FA000EFD1012E07D129483830006820F0805019
:104FB00026493831086000BFA069B8B323480068AB
:104FC00000F00C0008285ED0A069022846D100201D
:104FD0001F490866FEF78AFF054606E0FEF786FFD2
:104FE000401B022801D9032036E61848083800681B
:104FF000C0F340600028F1D1D4E907010843616A99
:1050000040EA81110122A06AC2EB500041EA00414E
:105010002C20005D41EA00600C49091F0860012056
:105020000B490866FEF762FF054607E02DE0FEF734
:105030005DFF401B022801D903200DE60348083814
:105040000068C0F340600028F1D01EE0083802403C
:1050500000004742800E47420070004000200C498B
:105060000866FEF743FF054606E0FEF73FFF401BDC
:10507000022801D90320EFE506480068C0F340602C
:105080000028F2D101E00120E6E50020E4E500007F
:10509000000047420038024010B504460CB9012018
:1050A00010BD607F20B900202077204600F060F816
:1050B0000220607700BFCA2021684862532021681F
:1050C000486200BF204602F0F9F840B100BFFF205F
:1050D0002168486200BF042060770120E0E7206873
:1050E0008068224908402168886021696068084317
:1050F00061690843216889680843216888602168DC
:10510000E068086120680169208941EA004021685F
:1051100008612068C06820F080002168C8602068AD
:10512000806800F0200060B9204600F041F840B1EE
:1051300000BFFF202168486200BF04206077012083
:10514000AEE72068006C20F48020216808642068A5
:10515000006CA16908432168086400BFFF20216832
:10516000486200BF01206077002099E7BFFF8FFFF2
:105170001FB5044600200090019002900390094959
:10518000206888420CD102200090074803906846AE
:10519000FFF72EFB08B1FDF765FD0120034908600C
:1051A0001FBD00000028004000031E003C0E4742C7
:1051B00070B5044600252068C06820F0A000216872
:1051C000C860FEF793FE054607E0FEF78FFE401B22
:1051D000B0F57A7F01D9032070BD2068C06800F067
:1051E00020000028F1D00020F6E710B504460CB9E5
:1051F000012010BD606A00B900BF0021A16294F8CF
:10520000510028B9002084F85000204600F034F8FE
:10521000022084F851002068006820F040002168D6
:105220000860D4E901010843E168084321690843A3
:1052300061690843218B01F400710843E169084367
:10524000216A0843A16A0843216808600421A06913
:1052500001EA1040616A0843216848602068C0691B
:1052600020F400602168C86100206065012084F896
:1052700051000020BDE7000010B586B0044614219F
:1052800001A8FBF7E4FA4B49206888427ED100BFB1
:10529000002000904848006840F48050464908606B
:1052A0000846006800F48050009000BF00BF00BFB7
:1052B0000020009040481438006840F002003E4949
:1052C000143908600846006800F00200009000BF32
:1052D00000BF00BF002000900846006840F00100B9
:1052E00008600846006800F00100009000BF00BFA1
:1052F00018200190022002900120039003200490C6
:105300000520059001A92D48FEF7EAFC80200190B8
:1053100002200290012003900320049005200590B4
:1053200001A92748FEF7DCFC2648274908604FF012
:10533000C0604860002124488160C1604FF48061F2
:105340000161002141618161C1614FF4403101621D
:1053500000214162FEF71EFB08B1FDF783FC00BF90
:105360001948E064846300BF164818301749086084
:105370004FF0C06048604021144881600021C16046
:105380004FF4806101610021416100E010E0816122
:10539000C1614FF40031016200214162FEF7FAFA67
:1053A00008B1FDF75FFC00BF0848A064846300BF3C
:1053B00006B010BD003001404438024000040240F5
:1053C0000000024040640240100A0020700A0020E1
:1053D0002DE9FF5F0446884691461D460E9E01203A
:1053E00002900020019000BF94F85000012803D1E2
:1053F000022004B0BDE8F09F012084F8500000BFF7
:10540000FEF774FD074694F851B060680390AA4611
:10541000BBF1010F0BD00398B0F5827F04D1A068D7
:1054200010B9BBF1040F02D002200190DBE0B8F10B
:10543000000F03D0B9F1000F00D015B90120019081
:10544000D1E094F85100042802D0052084F85100DE
:1054500000206065C4F83890E587A587C4F83080DF
:10546000E586A586206460642068006800F040003E
:10547000402805D02068006840F04000216808609E
:10548000E068B0F5006F4AD1606810B1BAF1010F61
:1054900009D1206B00882168C860206B801C2063C4
:1054A000E08E401EE08633E02068806800F0020055
:1054B000022810D1E08E70B1029801280BD1206B28
:1054C00000882168C860206B801C2063E08E401E2D
:1054D000E086002002902068806800F0010068B13A
:1054E000E08F58B12068C068A16B0880A06B801C59
:1054F000A063E08F401EE08701200290FEF7F6FCDB
:10550000C01BB04204D3701C10B1032001906AE0AC
:10551000E08E0028C8D1E08F0028C5D14AE060683D
:1055200010B1BAF1010F09D1206B0078216808731E
:10553000206B401C2063E08E401EE08634E0206833
:10554000806800F00200022810D1E08E70B102984D
:1055500001280BD1206B007821680873206B401C58
:105560002063E08E401EE086002002902068806864
:1055700000F0010068B1E08F58B12068C068A16BED
:105580000870A06B401CA063E08F401EE0870120E4
:105590000290FEF7ABFCC01BB04201D3701C00B9F7
:1055A00016B9032001901EE0E08E0028C7D1E08FDD
:1055B0000028C4D13A463146204604F0FDFA20B115
:1055C00001200190202060650DE0A06850B900BF67
:1055D000002000902068C0680090206880680090DB
:1055E00000BF00BF00BF012084F8510000BF0020B1
:1055F00084F8500000BF0198FBE67047704710B573
:10560000024600BF92F83C00012801D1022010BDE3
:10561000012082F83C0000BF022082F83D001068A3
:1056200043681068846823F070030868034324F01B
:105630008004486804431068436010688460012057
:1056400082F83D0000BF002082F83C0000BF00BF90
:10565000DDE710B504460CB9012010BD94F83D00FB
:1056600028B9002084F83C00204600F00DF8022004
:1056700084F83D00211D206804F0D6FB012084F849
:105680003D000020E9E7000008B5344A0168914276
:105690000FD100BF002100913149096841F002019A
:1056A0002F4A11601146096801F00201009100BF04
:1056B00053E02C4A016891420FD100BF00210091B4
:1056C0002749096841F00401254A1160114609681B
:1056D00001F00401009100BF3FE0234A01689142BC
:1056E0000FD100BF002100911D49096841F0080158
:1056F0001B4A11601146096801F00801009100BFC2
:105700002BE01A4A0168914211D100BF002100919B
:105710001349091D096841F00201114A121D116067
:105720001146096801F00201009100BF15E0104A1E
:105730000168914211D100BF002100910849091D63
:10574000096841F40031064A121D116011460968CA
:1057500001F40031009100BF00BF08BD000400400B
:105760004038024000080040000C004000040140A6
:10577000004401400146022081F83D00086880682D
:1057800000F00702062A05D00868006840F0010012
:105790000B681860012081F83D0000207047014629
:1057A0000868C06840F001000B68D860086880682D
:1057B00000F00702062A05D00868006840F00100E2
:1057C0000B681860002070472DE9F04104460D4633
:1057D00000BF94F83C00012802D10220BDE8F0810E
:1057E000012084F83C0000BF022084F83D002068BE
:1057F000866826F0770626F47F462068866028684B
:10580000502833D00CDC202850D004DC00284BD0AA
:10581000102851D149E0302849D040284CD139E0F6
:1058200060282DD0702807D0B0F5805F03D0B0F588
:10583000005F41D10DE040E0D5E902136A682068BD
:1058400004F06FFB2068866846F077062068866063
:1058500033E0D5E902136A68206804F062FB20682F
:10586000806840F480402168886026E0EA686968C2
:10587000206804F047FC5021206804F05DFB1CE028
:10588000EA686968206804F050FC6021206804F030
:1058900053FB12E0EA686968206804F033FC402199
:1058A000206804F049FB08E000BF00BF00BF296882
:1058B000206804F041FB00E000BF00BF012084F835
:1058C0003D0000BF002084F83C0000BF00BF85E71A
:1058D000704710B5044620680069C0F34000D8B195
:1058E0002068C068C0F34000B0B16FF002002168CA
:1058F0000861012020772068806900F0030018B15A
:105900002046FFF7E5FF05E0204600F07FF920463E
:1059100000F01CFA0020207720680069C0F38000A6
:10592000D8B12068C068C0F38000B0B16FF0040047
:1059300021680861022020772068806900F44070A7
:1059400018B12046FFF7C4FF05E0204600F05EF9DD
:10595000204600F0FBF90020207720680069C0F3A2
:10596000C000D8B12068C068C0F3C000B0B16FF00B
:10597000080021680861042020772068C06900F0D1
:10598000030018B12046FFF7A3FF05E0204600F012
:105990003DF9204600F0DAF9002020772068006900
:1059A000C0F30010D8B12068C068C0F30010B0B1D7
:1059B0006FF0100021680861082020772068C06916
:1059C00000F4407018B12046FFF782FF05E0204642
:1059D00000F01CF9204600F0B9F90020207720687B
:1059E000006900F0010058B12068C06800F00100B3
:1059F00030B16FF0010021680861204600F0D4F951
:105A000020680069C0F3C01058B12068C068C0F3B6
:105A1000C01030B16FF08000216808612046FFF7A8
:105A2000ECFD20680069C0F3801058B12068C068A0
:105A3000C0F3801030B16FF040002168086120464B
:105A400000F0BEF920680069C0F3401058B120682A
:105A5000C068C0F3401030B16FF0200021680861C9
:105A60002046FFF7CBFD10BD10B586B004461421CB
:105A700001A8FAF7ECFE58492068884224D100BFFB
:105A8000002000905548006840F004005349086029
:105A90000846006800F00400009000BF00BF8815B1
:105AA00001900220029001200390022004900590B2
:105AB00001A94B48FEF714F94A48FFF75BFE08219D
:105AC000484800F045F984E047492068884225D1DC
:105AD00000BF002000904148006840F008003F49A6
