:020000040800F2
:10000000B8B70020550300085D7F0008676F00083F
:10001000597F0008D5300008DDB600080000000058
:100020000000000000000000000000009502000831
:10003000F33A000800000000F102000829AC0008B3
:100040006F0300086F0300086F0300086F030008C8
:100050006F0300086F030008F53A00086F030008FB
:100060006F030008FF3A0008093B00086F0300080F
:100070006F0300086F0300086F0300086F03000898
:100080006F0300086F0300086F0300086F03000888
:10009000D93000086F0300086F030008133B000805
:1000A0006F0300086F0300086F0300086F03000868
:1000B0006F0300086F0300086F0300086F03000858
:1000C0006F0300086F0300086F0300086F03000848
:1000D0006F03000885B400086F030008ADB5000881
:1000E0006F0300086F0300086F0300086F03000828
:1000F0006F0300086F0300086F0300086F03000818
:100100006F0300086F0300086F0300086F03000807
:100110006F0300086F0300086F03000875AD000847
:100120006F0300086F0300087D3100086F030008AB
:100130006F0300086F0300086F0300086F030008D7
:100140006F0300086F0300086F0300086F030008C7
:100150006F0300086F0300086F0300086F030008B7
:100160006F0300086F0300086F0300086F030008A7
:100170006F0300086F0300086F0300080000000011
:100180006F0300086F03000800F002F800F072F837
:100190000AA090E8000C82448344AAF10107DA45E2
:1001A00001D100F067F8AFF2090EBAE80F0013F0C2
:1001B000010F18BFFB1A43F001031847082701007D
:1001C000282701000A444FF0000C10F8013B13F0FF
:1001D000070408BF10F8014B1D1108BF10F8015BA0
:1001E000641E05D010F8016B641E01F8016BF9D193
:1001F00013F0080F1EBF10F8014BAD1C0C1B09D1EA
:100200006D1E58BF01F801CBFAD505E014F8016B5B
:1002100001F8016B6D1EF9D59142D6D370470000ED
:100220000023002400250026103A28BF78C1FBD8FF
:10023000520728BF30C148BF0B607047662911F0D4
:100240002585642900F0A881002070471FB511F0B2
:1002500065FC01F0B1F804000020002110F0AAFDB7
:10026000401C60600020002110F08EFDE0601FBD8A
:1002700010B510BD01F080FB1146FFF7E7FF0EF04F
:10028000F7FA01F0D1FD03B4FFF7F2FF03BC01F070
:1002900097FE00002C4B19680868B0E8F04F80F317
:1002A0000988BFF36F8F4FF0000080F3118870470B
:1002B0000000000008480068006880F308884FF0DC
:1002C000000080F3148862B661B6BFF34F8FBFF3AE
:1002D0006F8F00DF00BF00BF08ED00E0DFF80C000B
:1002E000016841F470010160704700BF88ED00E0D3
:1002F000EFF30980BFF36F8F134B1A681EF0100FD6
:1003000008BF20ED108A20E9F04F106009B44FF0CB
:10031000500080F31188BFF34F8FBFF36F8F0FF042
:10032000C9FD4FF0000080F3118809BC1968086806
:10033000B0E8F04F1EF0100F08BFB0EC108A80F349
:100340000988BFF36F8F7047E0010020EFF305804D
:10035000704700000948804709480047FEE7FEE76C
:10036000FEE7FEE7FEE7FEE7FEE7FEE7FEE7FEE765
:1003700004480549054A064B7047000011AD0008C6
:1003800089010008B8770020B8B70020B89700208E
:10039000B89700209FED1A1AF5EE000A40EE010A08
:1003A000BDEEE00AF5EEC00A10EE100AF1EE10FA0A
:1003B00038BF401E00EE100A1349F7EE001AB8EEDF
:1003C000C00A30EEC00ADFED0F0A20EE200AFCEE74
:1003D000C00A10EE900AC0F3080000EE900A01EB8C
:1003E0008000F8EE600A90ED011A70EE600A90ED60
:1003F000000A71EEE01A21EE800A00EE810A7047D1
:1004000083F9223E0000004404200108DFED190AB0
:10041000B5EEC00A60EE200ABDEEE01A11EE100A39
:10042000F1EE10FA38BF401E00EE100A1349F7EE45
:10043000001AB8EEC00A30EEC00ADFED0F0A60EE17
:10044000200ABCEEE00A10EE100AC0F3080000EE2D
:10045000100A01EB8000B8EE400A90ED011A70EE30
:10046000C00A90ED000A71EEE01A21EE800A00EE5B
:10047000810A704783F9223E0000004404200108ED
:1004800053EA020C00F069802DE9F04B4FF00006B2
:10049000002B1FBFB3FA83F503FA05F424FA05F61F
:1004A0005E4012BF1643B2FA82F502FA05F4C5F1B6
:1004B00020051EBF22FA05FC44EA0C04203556EA4A
:1004C000044C4FEA144418BF641C4FF000084FF06E
:1004D0000009904271EB030C39D3002919BFB1FA1E
:1004E00081F701FA07F6B0FA80F700FA07F6C7F1CC
:1004F00020071EBF20FA07FC46EA0C062037B6FB91
:10050000F4FCA7EB0507103F07F01F0BCBF120060B
:100510000CFA0BFB2CFA06F644BFB3460026202F3C
:10052000A4BF5E464FF0000B5BEA060C08BF4FF01D
:10053000010B19EB0B09ABFB027C48EB0608C01B57
:1005400006FB02CC0BFB03CC71EB0C01C1E70B46A5
:10055000024641464846BDE8F08B13B54FF0000017
:100560004FF00001AFF30080BDE81C407047000071
:100570000FB41CB5074B06AA7B446946009005984A
:1005800000F02DFC0020694600F03CFC1CBC5DF82E
:1005900014FB0000890800002DE9F0410646002404
:1005A00010687529314616A510D0AFF300800028D9
:1005B00002DA404213A507E031688A0701D512A587
:1005C00002E0490704D511A5012401E0AFF3008042
:1005D00000210A2206F1240709E0B0FBF2FCB0FB7F
:1005E000F2F302FB1C00303078541846491C0028F6
:1005F000F3D123462A463046BDE8F04100F081B9E8
:10060000000000002D0000002B0000002000000072
:100610002DE9F0474FF0000A89460446C0F820A0B3
:100620002046E1688847002876D0252806D0D4E9FE
:1006300001219047206A401C2062F1E7E1682046D2
:1006400000258847C4F81CA006460027C4F818A057
:100650002A2E09D030460BF0D0FB38B304EB8708C4
:10066000303EC8F8186019E059F8041B204604EB26
:1006700087029161E1688847012F064618D1E06939
:10068000002820DA25F020051DE0D8F8180000EB3E
:10069000800006EB40003038C8F818002046E168BA
:1006A000884706460BF0A9FB0028EED1012F0AD09F
:1006B0002E2E08D12046E16888477F1C0646022F6F
:1006C00045F02005C4DBA069002803DA404245F06C
:1006D0000105A061E80701D025F01005B6B1A6F12B
:1006E0004100192802D8203645F400654A463146B3
:1006F000204625604D46FFF7A1FD58B1012806D0E0
:10070000ED1D25F0070000F1080989E704E005F177
:10071000040985E730468AE7206ABDE8F0870000D3
:100720000FB400B58DB010A9099000910B904FF057
:10073000FF300A9000200C90064878440690064846
:1007400078446A4607900F9909A800F0E3FD0DB0C0
:100750005DF814FBF70B00000F0C000010B5431CF4
:1007600002E010F8011B71B18107FAD14FF001329C
:1007700002C88C1A8C4314EAC211F9D0C01A0A06B6
:1007800003D0C01E10BDC01A10BD0A0401D0801EC7
:1007900010BD0902FCD0401E10BD032A40F230807B
:1007A00010F0030C00F0158011F8013BBCF1020FB2
:1007B000624498BF11F801CB00F8013B38BF11F833
:1007C000013BA2F1040298BF00F801CB38BF00F84A
:1007D000013B11F0030300F02580083AC0F00880C7
:1007E00051F8043B083A51F804CBA0E80810F5E7AB
:1007F000121D5CBF51F8043B40F8043BAFF300808E
:10080000D20724BF11F8013B11F801CB48BF11F802
:10081000012B24BF00F8013B00F801CB48BF00F8D2
:10082000012B704710B5203AC0F00B80B1E818508A
:10083000203AA0E81850B1E81850A0E81850BFF4CA
:10084000F5AF5FEA027C24BFB1E81850A0E8185069
:1008500044BF18C918C0BDE810405FEA827C24BFBD
:1008600051F8043B40F8043B08BF7047D20728BF4B
:1008700031F8023B48BF11F8012B28BF20F8023B9A
:1008800048BF00F8012B704702F0FF0343EA032240
:1008900042EA024200F070BD4FF0000200B513467C
:1008A00094469646203922BFA0E80C50A0E80C5090
:1008B000B1F12001BFF4F7AF090728BFA0E80C5041
:1008C00048BF0CC05DF804EB890028BF40F8042B3A
:1008D00008BF704748BF20F8022B11F0804F18BFA7
:1008E00000F8012B704770477047704710B500F053
:1008F00067FD006810BD10B5044600F061FD04609E
:1009000010BD2DE9F0470D4699469246044600F188
:1009100024080168880604D5E06921F010012160EF
:1009200000E00120A84201DD471B00E00027A1698B
:100930007A1902EB0900081AA0612078C00602D4D7
:100940002046AFF30080002608E0D4E901211AF820
:1009500006009047206A401C761C20624E45F4DB5E
:100960002078C0060AD52046AFF3008006E0D4E91F
:10097000012130209047206A401C2062381EA7F1D8
:100980000107F4DC07E0D4E9012118F805009047DD
:10099000206A401C2062281EA5F10105F3DC2046D8
:1009A000AFF300802078000602D50220BDE8F08772
:1009B0000120FBE770472DE9FF4F0C461E464FF024
:1009C000FF378BB0D2E90001DDF860800A908A46DB
:1009D000C1F30A5505B93D460021084611F046F914
:1009E000BAF1000F00F4400005DA00EB80004FF48C
:1009F000400101EA50004FEA9059B9F1010F00DDC2
:100A0000B9460A9850EA4A000ED044F61050A5F2B2
:100A1000FF3545432F14B8F1000F1ED07542291E33
:100A20001EDDC9F100021CE0B8F1010F4FF000001B
:100A300001D0302103E0F24305E02154401CB042D4
:100A4000FBDB30460022002121540B99C1F80880BD
:100A5000C1E900200FB0BDE8F08FBD1B6D1CDEE7C3
:100A60004A4600DA694206A800F010FF06AB93E898
:100A7000070003AB83E8070050460A9901F0C7FA64
:100A80008DE80700A0F500501F3800900398002D56
:100A90000ADD42F21F014A460844002303A90390DD
:100AA000684601F073FD09E0A0F500504A461F3882
:100AB000002303A90390684601F092FD8DE807002A
:100AC0000004000C03D04FF0FF30410800E0104656
:100AD000B8F1000F03D00022009215461EE0751EEB
:100AE00005D400F071FC303262556D1EF9D5B34665
:100AF0000122084302D000227F1C04E02078302825
:100B000001D100227F1E002A099784D01DE0112DFB
:100B100007DA00F059FC303262556D1C50EA0102D0
:100B2000F5D1084302D00098C8B10EE00021681E3C
:100B300005E0235C625C63542254401E491C8142E0
:100B4000F7DBAB46A81B401E0990002004F80B0001
:100B50000B98099AC0F80880C0E9002B7AE71126A3
:100B60004FF0000857E72DE9F04F88460446D21DA4
:100B700022F0070191B0D1E90001CDE90A010AF0A4
:100B8000AFFD02460B98C00F01D02D2007E0206872
:100B9000810701D52B2002E0202101EAC000032AB1
:100BA000099001D0072A05DB03464146204600F0A4
:100BB00073FC0BE12078800601D5E06900E0062097
:100BC000B8F1650F814606D0B8F1660F18D0B8F1BC
:100BD000670F70D131E00020B9F1110F009001DBF7
:100BE000112301E009F101030AAA01A90CA8FFF7EA
:100BF000E2FEDDE90C70002609F10105834647E0BD
:100C000001204B4600904FF000470AAA01A90CA80A
:100C1000FFF7D1FEDDE90DB00C995D46002610B955
:100C200009F101000D18B9EB050003D4C0F1FF363E
:100C300009F10105A5EB09002BE0B9F1010F01DA7B
:100C40004FF001090020B9F1110F0090484601DD75
:100C5000112300E003460AAA01A90CA8FFF7ABFE86
:100C6000DDE90C704D4600268346207800070AD443
:100C7000AB4500DA5D4601A8012D04DD411911F8EC
:100C8000011C302907D04F4502DA17F1040F04DAAE
:100C9000012082460FE06D1EEEE7002F02DCED1B07
:100CA0003E4403E0781CA84200DD7D1CB81B00F127
:100CB000010A4FF000472078000703D4AA4501DB62
:100CC0004FF0FF3A0021B7F1004F0DF143088DF8C6
:100CD000431024D002202B23002F01DA7F422D2342
:100CE0000A21021EA0F1010000DC5FB197FBF1FCBC
:100CF00097FBF1F201FB1C7C17460CF1300C08F855
:100D000001CDEEE7A8F1010003702188090501D5A6
:100D1000452100E06521A0F1010800F8011C0998B7
:100D20000FA9A1EB0807FF1D00B10120411901EB3C
:100D3000EA70A1693844081A401EA0612078C006F4
:100D400002D42046AFF30080099828B1D4E90121EC
:100D50009047206A401C20622078C00622D5204699
:100D6000AFF300801EE0002E04DBB34502DD01A8D6
:100D7000805D00E03020D4E901219047206A401CCA
:100D80002062761CAAF101005FEA000A0AD100F095
:100D900013FBC0680168405CD4E901219047206AD8
:100DA000401C2062281EA5F10105DCDC07E0D4E927
:100DB000012118F8010B9047206A401C2062381E60
:100DC000A7F10107F3DC2046AFF30080032011B048
:100DD00041E6000001694A1C02610878704700B5CD
:100DE0008FB0CDE901310021059105497944CDE964
:100DF000031011466846FFF70BFC0FB000BD000062
:100E0000E5FFFFFF0A6802F8010B0A607047000067
:100E10002DE9FF4F06468BB00878FF2806D0491C05
:100E20002D2805D000244FF0000908E000200CE038
:100E30000124F8E709EB8903491C00EB4309087812
:100E4000FF28F7D114B1C9F10000814610780025C0
:100E50002C46AA4629462D2801D02B2804D1521C05
:100E60002D2813D0002082468B461078FF280FD003
:100E70004FF0000C0A21521CA5FB017804FB0181F4
:100E800005FB0C11C5194BEB0104EEE70120EAE765
:100E90000021084610F0EAFEBAF1000F02D000EB84
:100EA00080004008C0F38157012F01DD4FF0FF376C
:100EB0000E9955EA040009EB01080BD04FF0020926
:100EC00018F5FA7F16DA4FEACA70002F706008DD55
:100ED000012007E04FEACA70C6E900B00FB0BDE8D4
:100EE000F08F0020306000F06BFAC0F800901821FD
:100EF000084616E0B8F5FA7F18DD002F02DAF74849
:100F0000784401E0F6487844D0E90010C6E90010C2
:100F100040EACA70706000F053FAC0F800901421E3
:100F200008460FB0BDE8F04F10F0A0BE0021084603
:100F300010F09CFEB8F10001099002DAC7F100023E
:100F400000E03A4601DAC8F1000106A800F09EFC74
:100F500006AB93E8070003AB83E8070044F23E00CA
:100F60005BEA04010090584604D144F21E012C466D
:100F70005D460091210C0904014306D10099240427
:100F800044EA15442D041039009104F07F410143D7
:100F900006D10099240244EA15642D020839009113
:100FA00004F07041014306D10099240144EA15740C
:100FB0002D01091F009104F04041014306D1009921
:100FC000A40044EA9574AD00891E009104F000412C
:100FD000084304D100986D196441401E00904FF001
:100FE00001033A466846B8F1000FCDE9014503A96F
:100FF00002DD01F00AFB01E001F0DDFABAF1000FB9
:1010000004460D4601D084F000440021084610F04B
:101010002DFE099940F2FF77484010F00C0F07D1E0
:1010200024F00040284303D0C4F30A50B84212D140
:1010300000F0C6F9C0F80090C4F30A50B8420AD1D3
:10104000A8487844D0E90010C6E9001004F0004137
:101050000843706042E7C6E900543FE72DE9FF4FBF
:101060001F464FF0000A4FF0FF38454691B0D7E9D0
:101070000146CDF83CA000F09FF9C0680168405CD3
:101080001090B96912986D1C8847396A8146884763
:101090000028F6D1B9F1FF3F0AD0002E24F4D06425
:1010A00011DDB9F12B0F08D0B9F12D0F0BD102E0F2
:1010B000404615B013E744F48064B96912986D1C7A
:1010C0008847761E8146600504A901D52D2000E0E1
:1010D0002B20002E01F1010B0DF130088DF81000CE
:1010E0003FDDB9F1690F08D0B9F1490F05D0B9F169
:1010F0006E0F02D0B9F14E0F1CD13B4601A80095EE
:1011000080E85002DDE912126FF0020010F0A8FE34
:10111000C11CCED10EE0B96912986D1C884781467A
:101120001398761E44F4007405600F98401C002E3E
:101130000F9016DDB9F1300FEDD0B9F1780F02D074
:10114000B9F1580F0DD10F9801280AD13B46CDE9CE
:101150000054DDE91212001F029610F07FFEC11C40
:10116000A7D1109989453ED144F0800406E0139937
:10117000681CAAF1010A44F400740860B9696D1C86
:101180001298761E884730288146F0D02BE01099BF
:10119000894505D1200603D4761E44F0800418E06A
:1011A00048460AF02AFE08B3761E0DF123018B454E
:1011B00044F4007408D2A9F130000BF8010B2006AA
:1011C00007D5AAF1010003E0200602D40AF10100CC
:1011D0008246A00502D51399681C0860B969129867
:1011E0006D1C88478146002ED1DC53E0002E51DD76
:1011F000B9F1650F02D0B9F1450F4BD1A00549D522
:10120000B9696D1C1298761E24F440748847002E2C
:1012100081460CDD2B2804D0B9F12D0F07D144F401
:101220008074B96912986D1C8847761E8146E00566
:1012300001D52D2100E02B2108F8011BCDF80080FD
:1012400021E0761E0DF13901884544F400740CD27A
:10125000A9F1300010F0FF0088F8000002D10099D9
:10126000884509D908F1010806E0E00501D51E48C6
:1012700001E042F20F708246B96912986D1C8847EE
:10128000814613980560002E04DD48460AF0B5FD3E
:101290000028D6D1F96912988847FF2053468BF869
:1012A000000088F8000000200A900B9004AA0CA906
:1012B0000AA8FFF7ADFDA00502D46FF00100F8E623
:1012C00014F0240F12D0E0071CD13868DDE90A12AF
:1012D000031D3B600068C0E9001213E0E81901003B
:1012E000DA1901009E180100F1D8FFFF0AA968462B
:1012F0000AF070FDE00705D13868009A011D3960D9
:10130000006802602846D4E6026811441378016040
:1013100018467047D16005497944516104497944C0
:10132000116200211161114600F0F6B8EDFFFFFFD8
:1013300063010000426842B1016811F8013B23B12A
:10134000521EC0E90012184670470121C160881E74
:10135000704742685AB1C368016843B983688B42D9
:1013600005D0491E521CC0E90012002070474FF002
:10137000FF3070474FF000020429C0F0128010F0D7
:10138000030C3FF48BAACCF1040CBCF1020F18BF84
:1013900000F8012BA8BF20F8022BA1EB0C01FFF7EE
:1013A0007DBA5FEAC17C24BF00F8012B00F8012B55
:1013B00048BF00F8012B7047004870477477002041
:1013C000004870475477002030B5B0F10A024FEA68
:1013D000900E71F100034EEA817EB0EB0E0061EBDE
:1013E00091014FEA101E4EEA017E10EB0E0041EB18
:1013F00011114FEA102E4EEA016E10EB0E0041EB78
:1014000011214FEA104E4EEA014E10EB0E0041EB57
:101410001141401841F100014FEAD00040EA41700B
:101420004FEAD10110EB80054FEA810444EA907441
:1014300044EB01046D1944EB0404521BA3414FF02B
:10144000000348BF0A3200D530BD401C41F1000105
:1014500030BD00001FB584B000200A9C06AB04AA72
:1014600002A90094AFF3008018B1DDE9020108B0D1
:1014700010BD0348204000F0E0FC00200146F6E7E4
:101480000000207C10B5044600F09CFA0068005D66
:1014900000F0010010BD00002DE9F0411F46044698
:1014A00003260168072A01F4006004DB08B116A5D1
:1014B00005E016A503E008B115A500E015A521F08B
:1014C00010002060A069C01EA0610FB1401EA06185
:1014D0002046AFF300804FB1D4E901213846904750
:1014E000206A401C2062C01C206206E0206AFAE7E5
:1014F000D4E9012115F8010B9047761EF8D2204659
:10150000AFF30080BDE8F0814E414E006E616E0089
:10151000494E4600696E66002DE9F34F4FF0000A10
:101520000C4656468DB001200C9001F10C000B903A
:1015300062690B9801219047051E2DD0252D2CD0D6
:10154000216A8847C0B162690B9801219047216ADE
:1015500088470028F7D16269411E0B98904700E048
:10156000761CA1690D988847216A88470028F7D121
:10157000E1690D988847DBE7A1690D988847A84283
:10158000074601D1761CD3E7E1690D9888477F1C97
:1015900002D1BAF1000F6FD06CE162690B9800279D
:1015A0003D46394690472A2804D162690B980121AB
:1015B00090470125DFF8D08262690B98012190479E
:1015C000A0F130010A290AD24745E5DC07EB870183
:1015D00000EB4107303FDFD445F01005ECE7E906AA
:1015E00001D46FF000476C280AD04C2814D068282A
:1015F00015D06A280DD074281CD07A281AD01DE086
:1016000062690B98012190476C2802D045F00405CF
:1016100014E045F002050DE045F020050AE062699E
:101620000B9801219047682802D045F0080505E095
:1016300045F4006562690B9801219047C4E90157A0
:1016400065283DD019DC58287AD00CDC452837D0E5
:1016500004DC252826D041289ED131E046282FD011
:10166000472899D12CE05B2877D0612828D06328BF
:101670007CD0642823D15AE0F7E06F2848D008DCFA
:1016800066281DD067281BD0692821D06E2816D166
:1016900027E0702845D0732868D0752847D078286F
:1016A0000DD14DE0A1690D988847252805463FF4E6
:1016B00069AFE1690D9888476D1C3FF46AAFD9E0C6
:1016C0000D9923466A466FF0010010F0C5FBC6E095
:1016D00045F0400023464FF000026060A80736D472
:1016E0003EE0E8077FF447AF2068011D21600068F5
:1016F000290501D506701BE7290701D5068017E7E4
:10170000A90703D5F117C0E9006111E706600FE7EB
:1017100045F0400023464FF008026060A80716D449
:101720001EE040F60E0125EA0100606016E045F07B
:10173000400023464FF00A026060A80707D40FE07C
:1017400045F040006060A80708D5234610220D9997
:101750006FF00100AFF3008081E007E01022234624
:101760000D996FF00100AFF3008078E04FF00009B1
:1017700063284F46C8464B46CB4602D05B2807D06D
:1017800039E02079C00601D40120A060012732E0B1
:101790006269D4F80CB00B98012190475E2807D1FC
:1017A0004FF0010949466269D4F80CB00B98904794
:1017B000216939B900210A4603AB43F82120491CAD
:1017C0000829FADBD8B3216949B308F10108626935
:1017D0000B98012190475D28F4D1B9F1000F09D091
:1017E000002003A951F82020D24341F82020401CBA
:1017F0000828F7DB03AB2069002820794FEA407006
:101800001ED05B462246CDF80080CDE901970D99A8
:1018100000286FF0010020DAAFF300801FE0C1174D
:1018200003AA00EBD1614B1121F01F0102EB8302EF
:10183000411A13680120884003431360C7E719E089
:101840000D99224600286FF00100009702DAAFF3ED
:10185000008004E0AFF3008001E0AFF300800028D7
:101860000ADA401C06D10C9820B14FF0FF300FB0BF
:10187000BDE8F08F5046FAE7E90701D10AF1010A05
:10188000064400200C9053E6CCCCCC0C2DE9F0475C
:10189000814616468AB0354878440DC88DE80D005B
:1018A00032487844801C03AC0DC884E80D0041F632
:1018B0009B300844372190FBF1F290FBF1F5A5F144
:1018C000800501FB12041B3C02D56442012000E0AC
:1018D0000020DFF898A080460027FA44AAF1BE0A4B
:1018E0000EE0E0070AD03246684607EB47010123C5
:1018F0000AEB810100F074FE8DE8070064107F1C84
:10190000002CEED1194F7F44AE3F19E0E80715D007
:1019100007EB04100DF1180A90E80E008AE80E009B
:10192000C068F04201D1981908903246012306A9F7
:1019300003A800F055FE03AB83E807006D10641C9C
:10194000002DE3D14FF0010332466946B8F1000F94
:1019500003A802D000F01AFE01E000F041FEC9E940
:101960000001C9F808200AB0BDE8F087E80F0100BF
:1019700000487047547700207546FFF7F9FFAE46E0
:1019800005006946534620F00700854618B020B58B
:10199000FEF7EEFCBDE820404FF000064FF00007D8
:1019A0004FF000084FF0000B21F00701AC46ACE807
:1019B000C009ACE8C009ACE8C009ACE8C0098D4674
:1019C0007047000010B5FFF7F7FC001D10BD00BF09
:1019D000E5F300002DE9FF4F1F464FF03C0987B0AB
:1019E0004FF00042DDE9141001F10108DDF858A0C4
:1019F00002EA4050039000200590834605460446C5
:101A00000490B969461E08988847AAF1010A029015
:101A1000BAF1000F3BDD02982E2815D0102100F0FE
:101A200066FA00282EDB4FF0010B0599014317D011
:101A3000B9F1000F0BDB4A46C11700F045FA054328
:101A40000C43A9F1040905E0012004900BE008B162
:101A500045F0010501200590049820B9361D02E0EB
:101A6000049800B1361FB969089808F10108884741
:101A7000BBF1000FAAF1010A0290C9D00999C1F87F
:101A80000080C5E70298702808D0502806D0F96970
:101A900008988847BBF1000F14D04FE00020029057
:101AA0000120BBF1000F049009D0B969089808F132
:101AB00001088847AAF10109B9F1000F07DCF969AB
:101AC000089888476FF001000BB0BDE8F08F2B2815
:101AD00004D02D280CD14FF0FF300490B96908983C
:101AE00008F101088847A9F10109B9F1000FE6DD05
:101AF000411CE4D00A2100F0FAF90028DFDB02994A
:101B000008F1010801EB810100EB41000290B96985
:101B1000089888470A2100F0EAF9099AA9F1010911
:101B2000B9F1000FC2F8008001DD0028E7DAF96999
:101B3000089888470499029800FB016655EA04005A
:101B400004D004F04041090002D006E0039898E078
:101B5000A40044EA9574AD00B61E04F000410800EC
:101B600002D16D196441761E159810F0240F03D030
:101B70004FF00B095C4803E04FF028096FF07D003F
:101B80008246564507DAAAEB06018944B9F1410FAE
:101B900001DD4FF0410901200021A9F1010200F00F
:101BA00093F9024628400B462140084301D0012109
:101BB00000E00021501E029143F1FF3128402140F6
:101BC000084301D0012000E000200299834651EA39
:101BD0000B014FD00021084610F048F8039900F49B
:101BE000400039B100EB80004FF4400100EBD070B1
:101BF00001EA60008015012802DD4FF0FF3000E0AF
:101C000013D0401C36D0029860B3BBF1000F0CD14A
:101C10004A460120002100F057F92840214008439E
:101C200001D0012000E00020E0B101204A4600215F
:101C300000F04AF9034640190A4661412D1A8C41C9
:101C400011D3B9F1400F09DD159810F0240F02D01F
:101C5000AAF1340603E0AAF1170600E0761C00257D
:101C60004FF0004406E05B1E42F1FF3220EA03051C
:101C700021EA0204CAF10100B04206DA1B490398C6
:101C800008430190002000900EE0039AC4F3D32192
:101C9000E80A0A43164940EA44500A433146CDE96E
:101CA000000268460AF09FF8159810F0240F0BD038
:101CB0001598C00715D13868DDE90012031D3B6097
:101CC0000068C0E900120CE002A869460AF082F838
:101CD0001598C00705D13868029A011D396000685F
:101CE00002604046F0E6000002FCFFFF0000F07FCB
:101CF0000000F03F2DE9FF4F92461D4685B04FF0A2
:101D00000041DDE9124BDDE914727F1E01EA4B5000
:101D1000414940F0FF4940EA0108002122F020003B
:101D20004928049102D04E2828D04CE03BA001263F
:101D300007C88DE80700A9690698641C88477F1EBC
:101D4000014606D41DF8060018B121F02001814299
:101D50000BD0E96906988847032E34D0082E32D07C
:101D60006FF0010009B0BDE8F08F761C032E01D0A2
:101D7000082EE0D1601CCAF80000DCE7A9690698CB
:101D8000641C88477F1E2AD420F02000412826D1D9
:101D9000A9690698641C88477F1E20D420F0200083
:101DA0004E281CD1A9690698641C88477F1E48F4F8
:101DB000002849F48009CAF8004001D4282806D038
:101DC000E969069888475FEACB7012D022E0A969DA
:101DD0000698641C88477F1E01D4002803DAE9694D
:101DE00006988847BCE72928F1D1641CCAF800404E
:101DF000E9E71BF0240F07D028680499031D2B6026
:101E00000068C0E9001805E02868021D2A60006823
:101E1000C0F800902046A5E70000F07F494E4649F3
:101E20004E4954590000000010B50446AFF300803D
:101E30002046BDE81040FEF726BA10B500F06AF85B
:101E4000BDE8104000F061B84FF0013C50F8042BA1
:101E500051F8043B9A4221D1A2EB0C03934313EABD
:101E6000CC1317D150F8042B51F8043B9A4215D1EA
:101E7000A2EB0C03934313EACC130BD150F8042BC1
:101E800051F8043B9A4209D1A2EB0C03934313EAA5
:101E9000CC13DBD04FF00000704700BFD01A01BA5E
:101EA000B1FA81F101F0180122FA01F0CB40C1F141
:101EB0002001DBB2C0B2C01A2CFA01F3D11A91434F
:101EC00011EAC311E6D17047B2F120030AD5C2F17D
:101ED000200301FA02F120FA03F300FA02F041EACA
:101EE0000301704700FA03F14FF0000070473A28F1
:101EF00000D2303820F02002412A01D3A2F137006D
:101F0000884201D34FF0FF307047002801D000F025
:101F100057B8704710B5022803D0410103D50DA171
:101F200012E0002010BD010101D50FA10CE0C1009D
:101F300001D511A108E0810001D512A104E0400003
:101F400001D513A100E0002115A000F03FF8012009
:101F500010BD0000496E76616C6964204F70657237
:101F60006174696F6E00000044697669646520429F
:101F700079205A65726F00004F766572666C6F77D4
:101F800000000000556E646572666C6F770000009B
:101F9000496E657861637420526573756C740000D6
:101FA0005349474650453A2041726974686D6574DB
:101FB000696320657863657074696F6E3A2000000C
:101FC00001491820ABBEFEE72600020070B50546A9
:101FD0000C460A2000E06D1C00F011F835B128789D
:101FE0000028F8D102E0641C00F009F814B1207850
:101FF0000028F8D1BDE870400A20AFF3008008B592
:1020000069468DF800000320ABBE08BD70475FEA4B
:10201000400C08BF91F0000F4FEA8C234FEAC12219
:1020200043EA51514FEA1C5018BF00F5F0404FEA07
:10203000300018BF41F000415FEA6C5C00F029807D
:10204000BCF1FF3F08BF40F080407047130C06BF53
:1020500012044FF0100C4FF0000C130E04BF1202CC
:102060000CF1080C130F04BF12010CF1040C930FB8
:1020700004BF92000CF1020CD30F04BF52000CF10C
:10208000010C11464FF00002A0F11F00A0EB0C0064
:10209000704711F0004F08BF704731F000413FF426
:1020A000D5AF0B0C06BF09044FF0100C4FF0000C1D
:1020B0000B0E04BF09020CF1080C0B0F04BF090141
:1020C0000CF1040C8B0F04BF89000CF1020CCB0F38
:1020D00004BF49000CF1010CCCF12003A0EB0C0073
:1020E00022FA03F302FA0CF241EA030100F10100C3
:1020F000704720F07F4C80EA030023F07F47ACEB71
:10210000070303F57C5300F0004003F1FF032DE9C2
:1021100080494FEA154B09B44FEA144325EA0B4EA8
:1021200024EA03480FF2042606EB132749083E78F9
:102130005FEA320203FB0667C7F5000707FB06F6F6
:102140004FEA54374FEAD64606F1020607FB066C03
:10215000CCF1005C4FEA1C472CEA074C07FB06F465
:102160000CFB06F504EB15464FEA961634BF00202B
:102170004FF000404FEAD13706FB07FC4FEA1C4CFA
:102180000CFB0BF7D21B03FB0CF761EB07010CFBFD
:102190000EF7B0EB074072EB17420CFB08F734BFA9
:1021A000A2EB0742B2EB074261EB17414FEA0C4446
:1021B0004FEA910706FB07FC4FEA1C4C0CFB0BF7A0
:1021C000B0EBC74072EB573203FB0CF734BFA2EB06
:1021D000C742B2EBC74261EB57310CFB0EF7B0EBD5
:1021E000C70072EB57720CFB08F734BFA2EBC702B3
:1021F000B2EBC70261EB5771039F4FEA816141EA7D
:10220000921104EBCC044FEAD1374FEA826206FB0D
:1022100007FC42EA90124FEA80604FEA1C4C0CFB2C
:102220000BF7D21B03FB0CF761EB07010CFB0EF75E
:10223000B0EB074072EB17420CFB08F734BFA2EB80
:102240000742B2EB074261EB17414FEA8C554FEA68
:10225000910704EB9C2406FB07FC4FEA1C4C0CFB8B
:102260000BF7B0EBC74072EB573203FB0CF734BFF0
:10227000A2EBC742B2EBC74261EB57310CFB0EF742
:10228000B0EBC70072EB57720CFB08F734BFA2EB40
:10229000C702B2EBC70261EB577115EB4C254FEA51
:1022A000816141EA92114FEA82624FEAD13742EAF4
:1022B000901206FB07FC44F100044FEA80604FEAED
:1022C0001C4C0CFB0BF7D21B03FB0CF761EB07015B
:1022D0000CFB0EF7B0EB074072EB17420CFB08F754
:1022E00034BFA2EB0742B2EB074261EB174115EB9B
:1022F0001C154FEA813141EA92414FEA823242EAAB
:1023000090424FEA80304FEA0C7644F1000448EAEC
:1023100003434EEA0B484FF0000EB2EB080C71EB92
:10232000030724BF624639464EEB0E0E4FF0000BFA
:102330000018524149414BEB0B0BB2EB080C71EB0F
:1023400003077BF1000B24BF624639464EEB0E0EAD
:102350004FF0000B0018524149414BEB0B0BB2EB15
:10236000080C71EB03077BF1000B24BF6246394672
:102370004EEB0E0E51EA020718BF46F0010616EBAF
:102380000E7655F1000254F1000103D5BDE8890134
:10239000BDE80088BDE88901BDE80048B619524192
:1023A00041EB0101A3F10103704780807F7E7D7CBA
:1023B0007B7A7978777676757473727171706F6ED7
:1023C0006E6D6C6C6B6A6A69686867666665646482
:1023D000636362616160605F5F5E5E5D5D5C5C5B0C
:1023E0005B5A5A595958585757565655555554547B
:1023F000535352525251515050504F4F4F4E4E4DD9
:102400004D4D4C4C4C4B4B4B4A4A4A494949484824
:102410004847474747464646454545444444444364
:1024200043434342424242414141000046EA06469C
:10243000A3F570534FEA164646EA42564FEAD222B7
:1024400042EA415210B54FEAD121A3F1010300F055
:102450002FF820F0004000F1020C00F0004701EBE3
:1024600000501146BCF5006F40EA070000D210BDD5
:10247000BAF1000F0AD01CB503B44FF004004FF0BE
:1024800004010FF0F3FB0FBCBDE810404FF000015A
:10249000BBF1010FB9BF04484FF0FF3103480021E1
:1024A00040EA070010BD00BFFFFFEF7F0000F07F94
:1024B000002B9C4630D477002BD01CB54FEA370751
:1024C00003B44FF010004FF01001BAF1000F06D026
:1024D000BCF1000FDCBF40F0080040F008010FF035
:1024E000C5FB0FBCBDE810400BF1010BBBF1010FA8
:1024F00008BF5FEA170722BF12F1010211F10101C3
:102500004FF0004143F1000300F0004043EA0000B7
:102510007047F9D35708D0E746EA064613F1400F53
:102520004FEA16461FDD13F1200FDFBF16430A46A0
:10253000002120335B42BED0C3F1200746EA0646A5
:1025400002FA07F74FEA164646EA0706C3F12007E4
:1025500022FA03F201FA07F721FA03F14FF0000320
:1025600042EA0702A7E746EA020646EA06464FEABB
:10257000164646EA0106BCBF46EA0646360C4FF050
:1025800000034FF000024FF0000194E72DE9804C6A
:102590009A46934670B491E8380007C831EA400C77
:1025A00048BF34EA430C03D5FFF7A3FDFFF780FFD4
:1025B000F0BCBDE8008C2DE9804C9A46934670B47F
:1025C00091E8380007C831EA400C48BF34EA430CB0
:1025D00003D5FFF78EFDFFF729FFF0BCBDE8008CA7
:1025E0002DE9804C9A46934670B491E8380007C8AC
:1025F00010F0804F08BF13F0804F03D100F01AF89D
:10260000FFF756FFF0BCBDE8008C2DE9804C9A46E0
:10261000934670B491E8380007C810F0804F08BFA7
:1026200013F0804F03D100F005F8FFF7FFFEF0BC78
:10263000BDE8008C20F07F4780EA030023F07F4C48
:1026400007EB0C03A3F57C5300F00040A3F1FE035D
:1026500092F0000F00F0B38095F0000F00F077804B
:102660002DE901494FEA11404FEA144621EA00489A
:1026700000FB06FC24EA064708FB06F607FB08F801
:1026800000FB07F718EB06484CEB164C4FEA124BD1
:1026900018EB07484FEA15464CEB174022EA0B4E61
:1026A0000BFB06FC25EA06470EFB06F607FB0EFEB3
:1026B0000BFB07F71EEB064E4CEB164C4FF00006DB
:1026C0001EEB074E4CEB174B18EB0B0840F10000CC
:1026D00018EB0E0B58EB000840F100008F1A4FF07A
:1026E00000013CBFC943661B14BFB5EB040C0021BD
:1026F0003CBFC943F61B4FEA17444EEA8E0E27EA49
:1027000004454FEA1C4704FB07622CEA074C05FB13
:1027100007F70CFB05F604FB0CFC16EB074642EB37
:10272000174216EB0C4642EB1C421BEB060658EB1D
:102730000202414146EA9E0601D5BDE80189B6196B
:10274000524141EB0101A3F10103BDE801894FEAC8
:1027500014454FEA114724EA054621EA074C05FBD8
:1027600007F406FB07F70CFB06F105FB0CFC11EB6D
:10277000074144EB17444FEA124711EB0C4144EB7D
:102780001C4422EA074C05FB07F206FB07F70CFB8B
:1027900006F605FB0CFC16EB074642EB174216EB60
:1027A0000C4642EB1C456A1854F1000148BF7047C3
:1027B000B619524141EB0101A3F10103704795F0B5
:1027C000000F37D04FEA11424FEA144721EA024680
:1027D00024EA074C02FB07F106FB07F70CFB06F4A3
:1027E00002FB0CFC14EB074441EB17414FEA154781
:1027F00014EB0C4441EB1C4125EA074C02FB07F5A6
:1028000006FB07F70CFB06F602FB0CFC16EB074673
:1028100045EB174516EB0C4645EB1C42121951F1DE
:10282000000148BF7047B619524141EB0101A3F1C5
:10283000010370474FEA14454FEA114724EA054661
:1028400021EA074C05FB07F106FB07F70CFB06F234
:102850004FF0000605FB0CFC12EB074241EB174161
:1028600012EB0C4251EB1C4148BF7047921841EBF0
:102870000101A3F10103704710B52DED028BB0EEFD
:10288000408AB0EE480A08F0EFFFBDEC028B10BDA5
:1028900010B52DED028BB0EE408AF0EE608AF0EEBE
:1028A000680AB0EE480A09F075F8BDEC028B10BD5D
:1028B00010B52DED028BB0EE408AB0EE480AFDF760
:1028C00069FDBDEC028B10BDF0EE400AF5EEC00ACA
:1028D000F1EE10FA02DDB0EE600A7047B1EE600A68
:1028E000FBE7000018B19FED020A80ED000A704777
:1028F0000000000018B1B3EE060A80ED000A704730
:1029000070B52DED0C8B84B006460C4615469FED38
:10291000990AF0EE408A9FED970AB0EE409A9FED3B
:10292000950AF0EE40BA9FED930AF0EE409A9FEDC3
:10293000910AB0EE40AA0EB104B11DB904B0BDECCD
:102940000C8B70BD8C48FFF7CDFF8C48FFF7D2FF92
:102950008A48D0ED000A9FED8A1A60EE810AB0EE37
:10296000600A00F02DF9F0EE408A28EEA80AF0EE99
:10297000408A8248D0ED000AB0EE001A60EE810A6B
:102980009FED7F1A60EE810AB0EE600A00F018F940
:10299000B0EE409A29EE090AB0EE409ADFED790ACE
:1029A000B7EE000A00EEA80ADFED770A00EEC90ACA
:1029B000DFED760A20EE200A754880ED000A6E48A9
:1029C00090ED000ADFED730A80EE201AB7EE000AE0
:1029D00031EE000A20EE000A6D48D0ED000A80EECC
:1029E000801A6D4880ED001A94ED000AB5EEC00A19
:1029F000F1EE10FA0DD194ED010AB5EEC00AF1EE38
:102A000010FA06D194ED020AB5EEC00AF1EE10FA02
:102A100046D09FED580AB0EE408A00200190029007
:102A20000390D4ED000A60EEA00A94ED011AD4EDF3
:102A3000011A41EE210A94ED021AD4ED021A41EE78
:102A4000210AB0EE600A00F0A9F8B0EE408A94EDD9
:102A5000000A20EE080A8DED010A94ED010A20EE2D
:102A6000080A8DED020A94ED020A20EE080A8DEDA7
:102A7000030ADDED010AF1EE600AB0EE600AFFF72D
:102A8000FBFEF0EE409A9DED031AF0EE410A9DED3B
:102A9000021AB0EE410AFFF7FBFEB0EE40AA07E0D3
:102AA0009FED340AF0EE409A9FED320AB0EE40AA54
:102AB00095ED000AB5EEC00AF1EE10FA0DD195EDD4
:102AC000010AB5EEC00AF1EE10FA06D195ED020A40
:102AD000B5EEC00AF1EE10FA3CD0B0EE690A00F093
:102AE0006FF8B0EE408AB0EE690AFFF7E1FEB0EE93
:102AF00040DAB0EE4A0A00F063F8F0EE40AAB0EE19
:102B00004A0AFFF7D5FEB0EE40BA28EE2A0AD5ED04
:102B1000010A20EE200AD5ED000A0DEE200A68EE2B
:102B20000B0A95ED021A00EE810AB0EE40CA95ED4F
:102B3000010A20EE0B0AD5ED020A0AEEE00AF0EED9
:102B400040CAF0EE6C0AB0EE4C0AFFF7A1FEF0EEC0
:102B500040BA03E09FED070AF0EE40BAB0EE4A1A21
:102B6000F0EE690AB0EE6B0A304609F02FFB00BFA9
:102B7000E4E600000000000054020020580200209B
:102B800035FA8E3CC1BFAD3B9DF8C5362F7C1C414C
:102B90005C020020506CC24A6002002010B52DED8E
:102BA000028BB0EE408AB0EE480A09F0BDF8B7EEED
:102BB000001AC1EE000AB0EE600ABDEC028B10BD37
:102BC00010B52DED028BB0EE408AB0EE480AFDF74D
:102BD0001DFCBDEC028B10BD2DE9F0412DED028BEB
:102BE0009AB00546B0EE408A0E4617469846002039
:102BF0001790189019901490159016904DB146B1F9
:102C00003FB1B8F1000F04D0B5EEC08AF1EE10FA72
:102C100005D100201AB0BDEC028BBDE8F08196ED25
:102C2000000A8DED170A96ED010A8DED180A96ED52
:102C3000020A8DED190A97ED000A8DED140A97ED41
:102C4000010A8DED150A97ED020A8DED160A17AAF5
:102C500014A9284609F00CF9402104A8FDF71CFE30
:102C600000200090019002900390002417A904A86E
:102C70000CF0F6FD00BF30E004A800EB041090ED6E
:102C8000000AD5ED000A20EE200A04A800EB04108B
:102C9000D0ED010A95ED011A00EE810A04A800EBBF
:102CA0000410D0ED020A95ED021A00EE810A04A884
:102CB00000EB0410D0ED030A95ED031A00EE810A33
:102CC00020EE080AF0EE000A80EE201A684600EBBB
:102CD000840080ED001A601CC4B2042CCCDB0024FC
:102CE00010E005EB840090ED000A684600EB8400DC
:102CF000D0ED000A30EE200A05EB840080ED000ADA
:102D0000601CC4B2042CECDB28460CF04FFC012004
:102D100080E7000010B501221021024802F03CF8C3
:102D200010BD00000000024010B500221021024832
:102D300002F032F810BD00000000024070470000B1
:102D400010B501221146024802F026F810BD00001D
:102D50000004024010B500220121024802F01CF8D4
:102D600010BD00000004024010B543781B021BB2E6
:102D70000478234300EE103AB8EEC01A1C4BD3ED92
:102D8000001A21EE211A81ED001AC3781B021BB232
:102D90008478234300EE103AB8EEC01A144BD3EDFA
:102DA000001A21EE211A81ED011A43791B021BB290
:102DB0000479234300EE103AB8EEC01A0C4BD3ED61
:102DC000001A21EE211A81ED021A037A1B04C4793C
:102DD00043EA04238479234300EE903AB8EE601A64
:102DE000DFED041A21EE211A82ED001A10BD000059
:102DF000A801002000401C42704710B50446204640
:102E00000BF073FD10BD10B5044620460AF064FEB9
:102E100010BD00004278120212B203781A4300EE8D
:102E2000102AF8EEC00A144A92ED001A60EE810AE8
:102E3000C1ED000AC278120212B283781A4300EE82
:102E4000102AF8EEC00A0C4A92ED001A60EE810AD0
:102E5000C1ED010A4279120212B203791A4300EE5F
:102E6000102AF8EEC00A044A92ED001A60EE810AB8
:102E7000C1ED020A70470000AC01002010B500242B
:102E8000FFF75CFFFFF7B8FF09F0F0FA10B144F06C
:102E9000800402E009F050FA044309F0DFFC10B1AD
:102EA00044F0400402E009F05FFC0443204610BDFA
:102EB0002DE9FC4105460E46174600200090019082
:102EC000FFF732FF922000F0D1F806226946122067
:102ED00000F0ACF8FFF71EFF9DF80100000200B201
:102EE0009DF8001040EA010400EE104AB8EEC00A56
:102EF0004C48D0ED000A20EE200A86ED000A9DF82D
:102F00000300000200B29DF8021040EA010400EE46
:102F1000104AB8EEC00A4348D0ED000A20EE200A5D
:102F200086ED010A9DF80500000200B29DF804102C
:102F300040EA010400EE104AB8EEC00A3948D0ED6C
:102F4000000A20EE200A86ED020AFFF703FF08229E
:102F50006946002000F06AF8FFF7F2FE9DF80000D5
:102F60000F2838D19DF80300000200B29DF802102E
:102F700040EA010400EE104AB8EEC00A2A48D0ED3B
:102F8000000A20EE200A85ED000A9DF805000002E7
:102F900000B29DF8041040EA010400EE104AB8EEB9
:102FA000C00A2148D0ED000A20EE200A85ED010A72
:102FB0009DF80700000200B29DF8061040EA0104E7
:102FC00000EE104AB8EEC00A1748D0ED000A20EE15
:102FD000200A85ED020AFFF7A7FEA22000F046F8BE
:102FE00002226946222000F021F8FFF793FE9DF8A7
:102FF0000000C0009DF8011040EA6114B4F5806F34
:1030000002DBA4F5006004B200EE104AF8EEC00A3C
:10301000B4EE001AB3EE070A00EE810A87ED000A4B
:10302000BDE8FC81A8010020AC01002070B5064677
:103030000C46154646F0800000F018F806E05520D2
:1030400000F014F82070641C681EC5B2002DF6D183
:1030500070BD70B504460D4644F0800000F006F8DF
:10306000552000F003F8287070BD000001B582B053
:103070004FF47A70012301AA02A90090024803F0DC
:1030800003F99DF804000EBD000A002010B50246A9
:103090001378DB00547843EA6410B0F5806F02DBEC
:1030A000A0F5006318B200EE100AF8EEC00AB4EE04
:1030B000001AB3EE070A00EE810A81ED000A10BD86
:1030C00070B505460C462846FFF7D0FF2046FFF7AF
:1030D000CDFF70BD00BFFEE710B5024801F081F8DA
:1030E00010BD00003C090020F8B507460C46154607
:1030F0001E46384600F030F80746204600F02CF80F
:103100000446284600F028F80546304600F024F82A
:1031100006464FF400700D49086000208860C860C2
:1031200008200861380A0A4908704F70200A887020
:10313000CC70280A08714D71300A8871CE716B46C7
:103140000A460249034800F050FEF8BDF00E002088
:10315000B80000203C0900200146002000EE101AB3
:10316000B8EEC00ADFED040A20EE200ABDEEC00A68
:1031700010EE102A10B2704700401C3F10B5FE48F8
:10318000C06C0068FD49884276D9FC485438006814
:10319000F949C96C0968FA4A914201D1202169E0D4
:1031A000F549C96C0968F54A483A914201D1202194
:1031B00060E0F149C96C0968F14A6032914201D17D
:1031C000202157E0EC49C96C0968EC4A1832914259
:1031D00001D120214EE0E849C96C0968E84A18325B
:1031E000914201D1C91445E0E349C96C0968E34A39
:1031F000303A914201D1C9143CE0DF49C96C0968F9
:10320000DF4A7832914201D1C91433E0DA49C96CFE
:103210000968DA4A3032914201D1C9142AE0D6490C
:10322000C96C0968D64A3032914202D14FF400117C
:1032300020E0D149C96C0968D04A183A914202D1BC
:103240004FF4001116E0CC49C96C0968CC4A9032A1
:10325000914202D14FF400110CE0C749C96C0968D2
:10326000C64A4832914203D14FF4001102E003E014
:103270004FF00061084070E1BF48C06C0068C04971
:10328000A831884276D9BD4858380068BA49C96C17
:103290000968BB4A914201D1202169E0B649C96C55
:1032A0000968B64A483A914201D1202160E0B2490A
:1032B000C96C0968B24A6032914201D1202157E0BD
:1032C000AD49C96C0968AD4A1832914201D120213B
:1032D0004EE0A949C96C0968A94A1832914201D146
:1032E000C91445E0A449C96C0968A44A303A91421E
:1032F00001D1C9143CE0A049C96C0968A04A7832E0
:10330000914201D1C91433E09B49C96C09689B4AB9
:103310003032914201D1C9142AE09749C96C096839
:10332000974A3032914202D14FF4001120E0924985
:10333000C96C0968914A183A914202D14FF40011C0
:1033400016E08D49C96C09688D4A9032914202D1CC
:103350004FF400110CE08849C96C0968874A48326B
:10336000914203D14FF4001102E003E04FF00061FD
:103370000840F2E08048C06C0068814948318842CA
:1033800076D97F48103840687B49C96C09687C4A07
:10339000914201D1202169E07749C96C0968774AD7
:1033A000483A914201D1202160E07349C96C096813
:1033B000734A6032914201D1202157E06E49C96CB5
:1033C00009686E4A1832914201D120214EE06A49C3
:1033D000C96C09686A4A1832914201D1C91445E0A2
:1033E0006549C96C0968654A303A914201D1C914EE
:1033F0003CE06149C96C0968614A7832914201D167
:10340000C91433E05C49C96C09685C4A30329142A6
:1034100001D1C9142AE05849C96C0968584A3032A8
:10342000914202D14FF4001120E05349C96C096860
:10343000524A183A914202D14FF4001116E04E4917
:10344000C96C09684E4A9032914202D14FF4001182
:103450000CE04949C96C0968484A4832914203D195
:103460004FF4001102E003E04FF00061084074E007
:103470004348103800684049C96C0968404A914285
:1034800001D1202168E03C49C96C09683B4A483AAF
:10349000914201D120215FE03749C96C0968384A5F
:1034A0006032914201D1202156E03349C96C09684C
:1034B000324A1832914201D120214DE02E49C96C87
:1034C00009682F4A1832914201D1C91444E02A49AF
:1034D000C96C0968294A303A914201D1C9143BE0CC
:1034E0002549C96C0968264A7832914201D1C9142C
:1034F00032E02149C96C0968204A3032914201D139
:10350000C91429E01C49C96C09681D4A303291422E
:1035100002D14FF400111FE01749C96C0968174A1E
:10352000183A914202D14FF4001115E01249C96CCA
:103530000968134A9032914202D14FF400110BE016
:103540000D49C96C09680D4A4832914202D14FF4C5
:10355000001101E04FF00061084000286FD00648DC
:10356000C06C0068054988427BD90348C06C00687C
:103570000349884208D105E0000A0020586402404F
:1035800010600240202068E0FE48C06C0068FE49E0
:10359000884201D1202060E0FA48C06C0068FB49F5
:1035A000884201D1202058E0F648C06C0068F649F6
:1035B0006031884201D120204FE0F248C06C0068A1
:1035C000F2494839884201D1C01446E0ED48C06C48
:1035D0000068ED491831884201D1C0143DE0E94846
:1035E000C06C0068E9491831884201D1C01434E048
:1035F000E448C06C0068E4497831884201D1C014C5
:103600002BE0E048C06C0068E0493039884202D1C4
:103610004FF4001021E0DB48C06C0068DA4930311B
:10362000884202D14FF4001017E0D648C06C006801
:10363000D6493031884204D14FF400100DE0DFE16B
:103640000FE0D048C06C0068CF499031884202D169
:103650004FF4001001E04FF00060CB49091F0860F3
:103660006AE1C848C06C0068C8494831884274D9CA
:10367000C448C06C0068C5496039884201D1202027
:1036800066E0C048C06C0068BF49884201D1202074
:103690005EE0BC48C06C0068BC49884201D1202073
:1036A00056E0B848C06C0068B7496031884201D123
:1036B00020204DE0B348C06C0068B44948398842C6
:1036C00001D1C01444E0AF48C06C0068AE49183165
:1036D000884201D1C0143BE0AA48C06C0068AB49E5
:1036E0001831884201D1C01432E0A648C06C00688D
:1036F000A5497831884201D1C01429E0A148C06CA5
:103700000068A2493039884202D14FF400101FE00E
:103710009C48C06C00689C493031884202D14FF40B
:10372000001015E09748C06C006898493031884215
:1037300002D14FF400100BE09248C06C006892492F
:103740009031884202D14FF4001001E04FF0006048
:103750008D4908390860EFE0FFE78A48C06C0068CF
:103760008A491839884274D98648C06C00688749EC
:103770006039884201D1202066E08248C06C006830
:103780008149884201D120205EE07E48C06C0068FB
:103790007E49884201D1202056E07A48C06C0068FA
:1037A00079496031884201D120204DE07548C06CD4
:1037B000006876494839884201D1C01444E0714814
:1037C000C06C006870491831884201D1C0143BE0D8
:1037D0006C48C06C00686D491831884201D1C01432
:1037E00032E06848C06C006867497831884201D18E
:1037F000C01429E06348C06C0068644930398842CD
:1038000002D14FF400101FE05E48C06C00685E49B2
:103810003031884202D14FF4001015E05948C06C95
:1038200000685A493031884202D14FF400100BE051
:103830005448C06C006854499031884202D14FF41A
:10384000001001E04FF0006050497039C86073E02B
:10385000FFE74C48C06C00684C496039884201D190
:10386000202066E04748C06C00684749884201D183
:1038700020205EE04348C06C00684449884201D182
:10388000202056E03F48C06C00683F4960318842C4
:1038900001D120204DE03B48C06C00683B494839CD
:1038A000884201D1C01444E03648C06C00683649F3
:1038B0001831884201D1C0143BE03248C06C006826
:1038C00032491831884201D1C01432E02D48C06C11
:1038D00000682D497831884201D1C01429E0294877
:1038E000C06C006829493039884202D14FF4001079
:1038F0001FE02448C06C006823493031884202D15F
:103900004FF4001015E01F48C06C00681F493031AB
:10391000884202D14FF400100BE01A48C06C0068D6
:1039200019499031884202D14FF4001001E04FF064
:1039300000601649703988601548007800F0020070
:1039400078B11348007820F0020011490870084649
:10395000007840F004000870012211460D4801F083
:103960001BFA0D48007800F00200E0B10A48007828
:1039700020F00200084908700846007840F0040072
:1039800008700BE0000A00201064024070600240E2
:103990000101002000040240020100200122102148
:1039A000184801F0F9F91848007800F0020078B1E1
:1039B0001548007820F00200134908700846007886
:1039C00040F004000870012210210E4801F0E4F9D3
:1039D0000AF080FC0D48007800F0040080B10B482C
:1039E000007820F00400094908700846007840F08B
:1039F000080008700648006840F0010004490860AB
:103A000010BD000000000240030100200101002061
:103A1000103C01400146087810381823B0FBF3F23F
:103A20000848805CC865032A05D908686FF3090057
:103A3000001D886503E008686FF309008865886DDC
:103A400070470000EE1F0108014600208A6A8B695A
:103A5000CBB932B1012A0DD0022A03D0032A10D1EA
:103A60000EE000BFCB6A03F08073B3F1807F00D11A
:103A7000012007E0CB6AB3F1C07F00D1012001E053
:103A800000E000BF34E08B69B3F5005F1AD132B1BA
:103A9000012A07D0022A03D0032A11D10AE000BF6D
:103AA00001200EE0CB6A03F08073B3F1807F00D178
:103AB000012006E0CB6AB3F1C07F00D1012000E015
:103AC00000BF15E032B1012A05D0022A04D0032A32
:103AD0000CD103E000BF00BF012008E0CB6A03F077
:103AE0008073B3F1807F00D1012000E000BF00BFF0
:103AF0007047704710B5012001F040F810BD10B5B7
:103B0000082001F03BF810BD10B5102001F036F888
:103B100010BD10B5202001F031F810BD7047000035
:103B200010B5002201B909E0012901D10A0205E01E
:103B3000022901D10A0201E04FF440720E4B1B68CA
:103B400023F440730C4C236023461B68134323600B
:103B500023461B6823F0F803236023461B680224D6
:103B600044EAC0042343044C236023461B6843F407
:103B70008033236010BD0000103C02401C480068E8
:103B800000F40070B0B11A48006820F400701849C1
:103B9000086000BF0846006840F4006008600846FE
:103BA000006820F40060086000BF0846006840F428
:103BB000007008600E48006800F48060B0B10C48E6
:103BC000006820F480600A49086000BF0846006869
:103BD00040F4805008600846006820F48050086077
:103BE00000BF0846006840F480600860704700002D
:103BF000003C02400A4A126822F44072084B1A60E4
:103C00001A46126842F004021A601A4612684FF40B
:103C1000803343EA00231A43014B1A6070470000C7
:103C2000103C0240074A126822F44072054B1A60A9
:103C30001A4612681A601A46126842F001021A60A7
:103C400001707047103C024010B50949096821F421
:103C50004071074C21602146096841F440712160A0
:103C60002146096841F0010121600260436010BDF6
:103C7000103C0240084A126822F44072064B1A6057
:103C80001A46126842F480721A601A46126842F0AC
:103C900001021A6001807047103C0240084A126815
:103CA00022F44072064B1A601A46126842F40072FF
:103CB0001A601A46126842F001021A6001607047E9
:103CC000103C02402348006800F0100040B1224838
:103CD000C06940F010002049C86110201D490860EB
:103CE0001C48006800F0200040B11B48C06940F04B
:103CF00008001949C8612020164908601548006865
:103D000000F0400040B11448C06940F0040012497E
:103D1000C86140200F4908600E48006800F080002C
:103D200040B10D48C06940F002000B49C8618020D5
:103D3000084908600748006800F0020040B10648E2
:103D4000C06940F020000449C861022001490860B0
:103D5000704700000C3C0240F414002070B504468B
:103D6000002500201449C86101F01CF8054609E04F
:103D7000601C38B124B101F015F8401BA04201D9F4
:103D8000032070BD0D48006800F480300028EFD19A
:103D90000A48006800F0010010B1012007490860DE
:103DA0000648006800F0F20018B1FFF78BFF012011
:103DB000E7E70020E5E70000F41400200C3C024097
:103DC00010B5024692F82030012B01D0022B06D10B
:103DD00010684069084314686061002010BD506A93
:103DE00040F4802050620120F8E7F0B504460D460B
:103DF0001E4694F8207020688368A86800B900E027
:103E000000BF012F01D0022F7CD103F0806030B9B8
:103E100003F0006018B903F08050002873D0C3F39A
:103E20000161022905D9606A40F400006062012046
:103E3000F0BD012088403060A86860B9B5F800C0C6
:103E4000E86840EA4C5C206800F5C07000EB0110A7
:103E5000C0F800C00FE0D5E901C040EACC00D5F8B9
:103E60000CC040EA0C00D4F800C00CF5C07C0CEB90
:103E7000011CCCF80000D5F810C0206800F5C07017
:103E800000EB0110C0F804C0287D01280ED1206885
:103E900000F5C07000EB0110406840F4807C2068A1
:103EA00000F5C07000EB0110C0F804C0D079000626
:103EB00092F806C040EA0C4092F805C040EA0C2C8B
:103EC00010794CEA000C206800F5C07000EB01107E
:103ED000C0F80CC0D078000692F802C040EA0C404E
:103EE00092F801C040EA0C2092F800C040EA0C00B1
:103EF000D4F800C00CF5C07C0CEB011CCCF8080019
:103F0000206801E016E00FE000F5C07000EB011042
:103F1000006840F0010C206800F5C07000EB011053
:103F2000C0F800C0002083E7606A40F400106062BF
:103F300001207DE7606A40F480206062012077E71D
:103F4000F0B504460A46216894F82050012D01D0AE
:103F5000022D7ED1424901F50071086840F0010050
:103F60000860086820F47C5008600868566A40EAD7
:103F700006200860107D00F01F06012000FA06F3FD
:103F8000C8699843C861A1F50071D069C8B9D1F872
:103F90000C029843C1F80C02908880B2968940EADE
:103FA000064601F51070576940F83760108880B2F6
:103FB000168940EA064601F51070576900EBC70004
:103FC0004660D069012819D1D1F80C021843C1F814
:103FD0000C02908880B2168840EA064601F51070FF
:103FE000576940F83760908980B2168940EA0646E2
:103FF00001F51070576900EBC7004660906928B959
:10400000D1F804029843C1F8040204E0D1F8040294
:104010001843C1F80402106928B9D1F81402984372
:10402000C1F8140204E0D1F814021843C1F81402D4
:10403000106A012804D1D1F81C021843C1F81C02EF
:10404000D1F8000220F00100C1F800020020F0BD0C
:10405000FFE7606A40F4802060620120F7E700001B
:1040600000640040704770B5044694F82050012D5C
:1040700001D0022D7CD151B92068C06800F0030046
:1040800080B9606A40F400106062012070BD206851
:10409000006900F0030028B9606A40F40010606213
:1040A0000120F3E7206800F5D87000EB01100068EC
:1040B00000F004009060906840B9206800F5D87066
:1040C00000EB01100068400D106007E0206800F56B
:1040D000D87000EB01100068C0085060206800F53F
:1040E000D87000EB0110006800F002004008D060BA
:1040F000206800F5D87000EB0110406800F00F0058
:104100001061206800F5D87000EB0110406800F4E1
:104110007F40000A9061206800F5D87000EB011024
:104120004068000C5061206800F5D87000EB011069
:1041300080681870206800F5D87000EB0110806866
:1041400000F47F40000A5870206800F5D87000EB3A
:104150000110806800F47F00000C9870206800F562
:10416000D87000EB01108068000ED870206800E065
:1041700031E000F5D87000EB0110C06818712068BC
:1041800000F5D87000EB0110C06800F47F40000A11
:104190005871206800F5D87000EB0110C06800F479
:1041A0007F00000C9871206800F5D87000EB0110BA
:1041B000C068000ED87131B92068C06840F0200096
:1041C0002668F06005E02068006940F0200026685D
:1041D000306100205AE7606A40F48020606201206C
:1041E00054E72DE9F05F0446002520684669206801
:1041F000D0F80490206887682068D0F80CA0206868
:10420000D0F810B02068D0F8188006F0010000281F
:1042100055D007F00100C0B101202168886007F087
:10422000020018B1204600F00AFB0EE007F004007F
:1042300010B145F4006508E007F0080010B145F43E
:10424000805502E0204600F0F9FA07F48070C8B10A
:104250004FF480702168886007F4007018B1204620
:1042600000F0EFFA0EE007F4806010B145F400555D
:1042700008E007F4006010B145F4804502E02046F4
:1042800000F0DEFA07F48030C8B14FF480302168C6
:10429000886007F4003018B1204600F0D4FA0EE030
:1042A00007F4802010B145F4004508E007F4002031
:1042B00010B145F4803502E0204600F0C3FA06F064
:1042C000080038B10AF0100020B145F40075102044
:1042D0002168C86006F0040040B10AF0080028B167
:1042E00008202168C860204600F006FA06F00200A7
:1042F00038B12068C06800F0030010B1204600F01B
:10430000FDF906F0400038B10BF0100020B145F483
:10431000806510202168086106F0200040B10BF094
:10432000080028B1082021680861204600F054FAEE
:1043300006F0100038B12068006900F0030010B1E9
:10434000204600F04AFA06F4003040B109F01000AF
:1043500028B1102021684860204600F03FFA06F49A
:10436000803040B109F0080028B108202168486079
:10437000204600F069FA06F4004088B309F0040012
:1043800078B306F4807020B108F0010008B145F060
:10439000010506F4007020B108F0020008B145F0F4
:1043A000020506F4806020B108F0040008B145F071
:1043B000040506F40060A0B108F0700088B108F0B0
:1043C0007000402817D006DC10280BD020280CD015
:1043D000302819D10CE0502810D0602814D110E0FA
:1043E0001DE019E045F008050FE045F010050CE070
:1043F00045F0200509E045F0400506E045F0800560
:1044000003E045F4807500E000BF00BF20688069CC
:1044100020F07000216888610420216848602DB177
:10442000606A284360622046FFF71CFEBDE8F09FEB
:1044300070B504460CB9012070BD94F8200010B985
:10444000204600F0AFF82068006820F002002168E4
:10445000086000F0A7FC05460DE000F0A3FC401B3F
:104460000A2808D9606A40F400306062052084F8A8
:1044700020000120E0E72068406800F002000028EA
:10448000EBD12068006840F001002168086000F06E
:1044900089FC05460DE000F085FC401B0A2808D980
:1044A000606A40F400306062052084F8200001203A
:1044B000C2E72068406800F001000028EBD0207EB1
:1044C000012806D12068006840F08000216808605B
:1044D00005E02068006820F0800021680860607EA8
:1044E000012806D12068006840F04000216808607B
:1044F00005E02068006820F0400021680860A07E88
:10450000012806D12068006840F02000216808607A
:1045100005E02068006820F0200021680860E07E47
:10452000012806D12068006820F01000216808608A
:1045300005E02068006840F0100021680860207FD6
:10454000012806D12068006840F008002168086052
:1045500005E02068006820F0080021680860607F9E
:10456000012806D12068006840F004002168086036
:1045700005E02068006820F0040021680860D4E9A4
:104580000201084321690843616908436168491EC3
:1045900008432168C86100206062012084F820007F
:1045A000002049E710B586B00446142101A8FCF7A5
:1045B00073F94B492068884241D14A480068401C41
:1045C000484908600846006801280FD100BF002054
:1045D00000904548006840F0007043490860084674
:1045E000006800F00070009000BF00BF00BF002016
:1045F00000903D481038006840F008003A491039F2
:1046000008600846006800F00800009000BF00BF86
:1046100003200190022002900020039003200490C8
:104620000920059001A9314800F0B6FA00220621C0
:10463000142000F0E7FF142000F0D4FF4DE02C49D7
:104640002068884249D100BF0020009026480068B9
:1046500040F08060244908600846006800F08060EF
:10466000009000BF00BF1F480068401C1D49086043
:104670000846006801280FD100BF002000901A48AA
:10468000006840F00070184908600846006800F0B3
:104690000070009000BF00BF00BF002000901248D3
:1046A0001038006840F002000F49103908600846D1
:1046B000006800F00200009000BF00BF4FF482507D
:1046C0000190022002900020039003200490092012
:1046D000059001A9074800F05FFA06B010BD000080
:1046E000006400403400002040380240000C0240CA
:1046F00000680040000402407047000010B58AB016
:10470000044601AB03AA00212046FFF7ACFC039846
:10471000A0F20120072857D2DFE800F004050607C1
:1047200008090A0000BF00BF00BF00BF00BF00BFF4
:104730000398401E264908700846007800EB800068
:10474000244931F8100000B22149097801EB8101B8
:10475000204A02EB410108819DF805009DF80410F4
:1047600040EA01201A49097801EB810122F8110081
:104770009DF807009DF8061040EA012000B2144998
:10478000097801EB810102EB410148809DF80900A5
:104790009DF8081040EA012000B20D49097801EBAC
:1047A000810102EB410188809DF80A0008490978DF
:1047B00001EB810102EB4101887105490978491C2F
:1047C000C8B209F0B1F900E000BF00BF0AB010BDE7
:1047D000C0000020900E002070477047704770B5F1
:1047E000044694F82000012822D1022084F82000F9
:1047F0002068006820F001002168086000F0D2FA0B
:1048000005460DE000F0CEFA401B0A2808D9606A80
:1048100040F400306062052084F82000012070BD63
:104820002068406800F001000028EBD16062F6E7E4
:10483000606A40F4002060620120F0E77047704732
:104840007047704770477047704700002DE9F0418E
:104850000446002500F0A6FA074614B90120BDE879
:10486000F081606A00B100BF00BF002084F834000E
:1048700000BF022084F835002068006820F00100A5
:10488000216808600AE000F08DFAC01B052805D9F0
:1048900020206065032084F83500E0E72068006888
:1048A00000F001000028EED120680568214805408D
:1048B000D4E901010843E1680843216908436169BB
:1048C0000843A1690843E1690843216A0843054395
:1048D000606A042803D1D4E90B010843054320682A
:1048E00005602068456925F00705606A0543606A30
:1048F00004280DD1A06A0543E06A48B12046FFF7BD
:10490000A3F828B140206065012084F83500A6E7AF
:10491000206845612046FFF77DF8064694F85C1054
:104920003F208840B06000206065012084F8350099
:10493000002094E73F8010F02DE9F04104460E4638
:104940000127002500BF2548007E012802D1022052
:10495000BDE8F08101202149087600BF4CF25030BB
:10496000FFF7FCF90746002F31D1401E3060206868
:1049700001280FD1207C6168FFF73CF94CF25030E0
:10498000FFF7ECF907461648006820F004001449C8
:1049900008601AE0A56812E0217C2846FFF7C0F8FD
:1049A0004CF25030FFF7DAF907460D48006820F066
:1049B000FA000B4908600FB1356005E06D1CD4E9C1
:1049C00002100844A842E7D800BFFFF7D7F800BF9D
:1049D00000200249087600BF3846B9E7F4140020E9
:1049E000103C02400348006840F000400149086064
:1049F00000207047103C02402DE9F04106460F466A
:104A000014461D464FF0010800BF1F48007E0128D4
:104A100002D10220BDE8F08101201B49087600BFC9
:104A20004CF25030FFF79AF98046B8F1000F23D1CD
:104A300026B9E1B23846FFF7F5F812E0012E04D1AD
:104A4000A1B23846FFF716F90BE0022E04D1214639
:104A50003846FFF723F904E022462B463846FFF795
:104A6000F3F84CF25030FFF779F9804607480068B8
:104A700020F001000549086000BF002002490876C7
:104A800000BF4046C6E70000F4140020103C02407E
:104A900000200949096801F0004159B10749064A57
:104AA0000C3A1160064911600349096801F00041A0
:104AB00001B1012070470000103C0240230167450E
:104AC000AB89EFCD10B50446102C14D1092009F0A4
:104AD0002BF82248007840F0010020490870204857
:104AE000007840F001001E4908701E480078A0B30D
:104AF00009F0F0FB31E0202C0ED1082009F014F869
:104B00001948007840F001001749087015480078EE
:104B100018B309F0DFFB20E0082C09D10A2009F0C6
:104B200003F81248007840F001001049087014E0C2
:104B3000012C12D10BF0BEFE01280ED00C490D48FD
:104B400000680BF09FF80A48006830B120070A4956
:104B50000860BFF34F8FBFF36F8F10BD02010020BD
:104B600003010020050100200101002004010020B4
:104B700078010020DC00002004ED00E010B50446C0
:104B800004480068204020B1024804602046FFF736
:104B900099FF10BD143C0140F8B502460B460025B4
:104BA000002400200021DCE0012606FA01F51E6841
:104BB00006EA0504AC4273D15E68022E02D05E683C
:104BC000122E13D1CF0802F1200656F827004E0707
:104BD000F70E0F26BE40B0434F07FF0E1E69BE40C2
:104BE0003043CF0802F1200646F8270010684F0036
:104BF0000326BE40B0431E7906F003064F00BE40B8
:104C0000304310605E68012E08D05E68022E05D029
:104C10005E68112E02D05E68122E13D190684F008C
:104C20000326BE40B0434F00DE68BE403043906074
:104C3000506801268E40B0431E79C6F300168E40A0
:104C400030435060D0684F000326BE40B0434F0051
:104C50009E68BE403043D0605E6806F08056B6F174
:104C6000805F7DD100BF00260096404E366846F436
:104C700080463E4F3E603E46366806F480460096CB
:104C800000BF00BF3A4E8F0856F827008E07370F37
:104C90000F26BE40B043374EB24202D1002624E078
:104CA0005EE0354EB24201D101261EE0334EB242E3
:104CB00001D1022619E0324EB24201D1032614E09E
:104CC000304EB24201D104260FE02F4EB24201D144
:104CD00005260AE02D4EB24201D1062605E02C4EF3
:104CE000B24201D1072600E008268F073F0FBE40E1
:104CF00030431F4E8F0846F82700264E3068A043E9
:104D00005E6806F48036B6F5803F00D12043214E20
:104D10003060361D3068A0435E6806F40036B6F594
:104D2000003F00D120431B4E361D3060361D3068D9
:104D3000A0435E6806F48016B6F5801F00D12043BC
:104D4000144E08363060361D3068A0435E6806F4A5
:104D50000016B6F5001F00D120430E4E0C36306011
:104D6000491C1029FFF420AFF8BD00004438024070
:104D700008380140000002400004024000080240E0
:104D8000000C0240001002400014024000180240D3
:104D9000001C0240003C01400AB1816101E00B04AB
:104DA000836170470148006870470000D40100200B
:104DB00070B504460CB9012070BD94F83D0028B9C7
:104DC000002084F83C00204600F0FAFA242084F801
:104DD0003D002068006820F001002168086000F0B4
:104DE0001BFE05465C496068884206D85B488542E0
:104DF00001D2012007E0002005E05948854201D298
:104E0000012000E00020012800D1D5E75548B5FB7E
:104E1000F0F62068406820F03F0030432168486089
:104E20004D496068884201D8701C07E04FF49670C5
:104E300070434FF47A71B0FBF1F0401C2168096AAD
:104E400021F03F01084321680862434960688842B5
:104E500014D8681E61684900B0FBF1F0401CC0F333
:104E60000B00042801D204203DE0681E616849005F
:104E7000B0FBF1F0401CC0F30B0034E0A06838B97F
:104E8000681E616801EB4101B0FBF1F0401C0AE0D3
:104E9000681E616801EBC10202EB0111B0FBF1F089
:104EA000401C40F48040C0F30B0008B901201AE018
:104EB000A06848B9681E616801EB4101B0FBF1F0E0
:104EC000401CC0F30B000CE0681E616801EBC102DE
:104ED00002EB0111B0FBF1F0401CC0F30B0040F4F9
:104EE000804040F400402168C9694CF6FF7291434C
:104EF00008432168C861D4E90701084321680968AB
:104F000021F0C001084321680860D4E90310084378
:104F10002168896848F2FF3291430843216888601C
:104F2000D4E9050108432168C96821F0FF0108435D
:104F30002168C8602068006840F0010021680860AE
:104F400000202064202084F83D000020206384F8A5
:104F50003E0000BF30E70000A086010080841E00F4
:104F600000093D0040420F002DE9FC5F04460F465A
:104F700090469946DDE90CAB0E9EFFF713FF054600
:104F800094F83D00202870D119230122B049204611
:104F9000009502F039F910B10220BDE8FC9F00BF76
:104FA00094F83C00012801D10220F6E7012084F8A2
:104FB0003C0000BF2068006800F0010028B92068AC
:104FC000006840F00100216808602068006820F453
:104FD000006021680860222084F83D00402084F8A9
:104FE0003E0000202064C4F824A0A4F82AB0608DFC
:104FF00020859848E0624B46424639462046CDE936
:10500000006501F0D1FF08B10120C6E7208D88B905
:1050100000BF0020019020684069019020688069ED
:10502000019000BF00BF2068006840F40070216854
:10503000086040E0208D012818D12068006820F425
:1050400080602168086000BF0020019020684069EE
:10505000019020688069019000BF00BF206800684F
:1050600040F400702168086025E0EFE0208D022800
:1050700016D12068006820F48060216808602068EC
:10508000006840F400602168086000BF00200190C3
:1050900020684069019020688069019000BF0AE0A3
:1050A00000BF00200190206840690190206880695D
:1050B000019000BF00BFBAE0208D03287ED8208D6C
:1050C000012815D12A463146204602F042F908B19E
:1050D000012062E720680069616A0870606A401C0C
:1050E0006062208D401E2085608D401E60859EE0A0
:1050F000208D02282AD133460022574920460095A8
:1051000002F082F808B1012047E72068006840F407
:1051100000702168086020680069616A0870606A30
:10512000401C6062208D401E2085608D401E608581
:1051300020680069616A0870606A401C6062208DA6
:10514000401E2085608D401E608570E03346002241
:1051500041492046009502F057F808B101201CE7AC
:105160002068006820F48060216808602068006979
:10517000616A0870606A401C6062208D401E208554
:10518000608D401E608533460022334920460095DD
:1051900002F03AF808B10120FFE62068006840F408
:1051A00000702168086020680069616A0870606AA0
:1051B000401C6062208D401E208500E010E0608D64
:1051C000401E608520680069616A0870606A401C42
:1051D0006062208D401E2085608D401E608526E027
:1051E0002A463146204602F0B4F808B10120D4E640
:1051F00020680069616A0870606A401C6062208DE6
:10520000401E2085608D401E608520684069C0F387
:10521000800060B120680069616A0870606A401CA3
:105220006062208D401E2085608D401E6085208D2F
:1052300000287FF441AF202084F83D00002084F84E
:105240003E0000BF84F83C0000BFA6E60220A4E6B2
:10525000020010000000FFFF040001002DE9FC5FC8
:1052600004460F4690469946DDE90CAB0E9EFFF7CB
:1052700099FD054694F83D0020287DD1192301228F
:105280004D492046009501F0BFFF10B10220BDE856
:10529000FC9F00BF94F83C00012801D10220F6E7F2
:1052A000012084F83C0000BF2068006800F0010085
:1052B00028B92068006840F0010021680860206873
:1052C000006820F4006021680860212084F83D0017
:1052D000402084F83E0000202064C4F824A0A4F8F4
:1052E0002AB0608D20853548E0624B4642463946FB
:1052F0002046CDE9006501F0F3FE08B10120C6E7C4
:1053000031E02A463146204602F063F850B1206C65
:10531000042805D12068006840F400702168086006
:105320000120B4E7606A007821680861606A401C67
:105330006062208D401E2085608D401E6085206843
:105340004069C0F3800070B1208D60B1606A007860
:1053500021680861606A401C6062208D401E2085C3
:10536000608D401E6085208D0028CAD12A463146B6
:10537000204601F01BFF00E01CE050B1206C042827
:1053800005D12068006840F40070216808600120A1
:105390007DE72068006840F40070216808602020E4
:1053A00084F83D00002084F83E0000BF84F83C00F3
:1053B00000BF6CE702206AE7020010000000FFFF58
:1053C00010B586B00446142101A8FBF765FA2A49F6
:1053D000206888424DD100BF002000902748006817
:1053E00040F00400254908600846006800F0040009
:1053F000009000BF00BF00BF00200090084600687A
:1054000040F0010008600846006800F001000090CC
:1054100000BF00BF481501901220029001200390A8
:10542000032004900420059001A91548FFF7B4FB60
:105430004FF480700190122002900020039003200E
:1054400004900420059001A90E48FFF7A5FB00BFBA
:105450000020009009481030006840F4000007491F
:10546000103108600846006800F40000009000BF9A
:1054700000BF06B010BD0000005C004030380240A4
:105480000008024000000240034800680349097810
:105490000844014908607047D4010020DC01002065
:1054A00010B50D48006840F400700B4908600846CC
:1054B000006840F4806008600846006840F480702E
:1054C0000860032000F0DCF80F2000F007F800F07F
:1054D0005FF8002010BD0000003C02402DE9F041C3
:1054E00088B004460027B84600BF0020019023483A
:1054F000006840F02000214908600846006800F07C
:105500002000019000BF00BF02A903A800F05CFAD0
:10551000069F1FB900F080FA054602E000F07CFA11
:1055200045001748B5FBF0F0A0F1010815481649F1
:10553000086040F2E7311448C160C0F804800021DF
:1055400001618160816100F0E0FF064696B90E4876
:1055500001F081F806466EB9372000F043F8102CB0
:1055600007D200222146372000F04CF8074804609B
:1055700000E00126304608B0BDE8F0814038024026
:1055800040420F0000140040380D0020D8010020D8
:1055900008B500BF002000901148006840F480402A
:1055A0000F4908600846006800F48040009000BF82
:1055B00000BF00BF00200090081F006840F080502E
:1055C000091F08600846006800F08050009000BF86
:1055D00000BF00220F21901E00F014F808BD00004B
:1055E0004438024001460846002809DB00F01F034A
:1055F00001229A4043099B0003F1E023C3F80021F4
:1056000000BF70472DE9F05F80460D461646002723
:1056100006F092F8074639462A46334601F007005D
:10562000C0F1070ABAF1040F02D94FF0040A01E0F1
:10563000C0F1070AD14600F1040ABAF1070F02D2FD
:105640004FF0000A01E0A0F1030AD4464FF0010A2E
:105650000AFA09FAAAF1010A0AEA020A0AFA0CFA93
:105660004FF0010B0BFA0CFBABF1010B0BEA030B38
:105670004AEA0B042146404606F066F8BDE8F09F72
:1056800000BF00F00702064B19684FF6FF031940F0
:10569000044B0B4343EA0221014B196000BF7047E2
:1056A0000CED00E00000FA05F8B5044600250026E0
:1056B000207800F0010020B9207800F004000428D0
:1056C0002FD100205B498866FFF76CFB054606E09A
:1056D000FFF768FB401B022801D90320F8BD56489C
:1056E0000068C0F3C0600028F2D160688101207AB0
:1056F00041EA007050498431086001204D498866B4
:10570000FFF750FB054606E0FFF74CFB401B022865
:1057100001D90320E2E748480068C0F3C0600028D0
:10572000F2D0207800F0020002287DD100BF0020D6
:10573000009041484030006840F080503E49403180
:1057400008600846006800F08050009000BF00BF6D
:105750003A48006840F4807038490860FFF722FB3F
:10576000054606E0FFF71EFB401B022801D9032077
:10577000B4E73248006800F480700028F2D02E4868
:105780007030006800F440764EB3A08900F4407099
:10579000B04224D028487030006820F440760120C0
:1057A00027490860002008602348703006600068C0
:1057B00000F0010098B1FFF7F5FA054608E0FFF7A1
:1057C000F1FA401B41F28831884201D9032085E774
:1057D000194870300068C0F340000028EFD000BFC7
:1057E000A08900F44070B0F5407F0CD11248083019
:1057F000006820F4F810134AE168114008430E498C
:105800000831086007E00C480830006820F4F81000
:10581000094908310860084870300068A189C1F35F
:105820000B010843044900E002E07031086000BF4A
:10583000002053E70000474200380240007000405B
:10584000400E4742FFFCFF0F70B504460D460CB9F1
:10585000012070BD5848006800F00F00A84209D22E
:1058600055490D700846006800F00F00A84201D0AD
:105870000120EEE7207800F0020002281DD12078F8
:1058800000F00400042805D14C48006840F4E050C2
:105890004A490860207800F00800082805D14748E8
:1058A000006840F46040454908604448006820F0C2
:1058B000F000A168084341490860207800F0010029
:1058C000A8B36068012807D13C4808380068C0F3D5
:1058D0004040B8B90120BCE76068022802D0606887
:1058E000032807D1354808380068C0F3406048B93C
:1058F0000120AEE7314808380068C0F3400008B91D
:105900000120A6E72D48006820F0030061680843E5
:105910002A490860FFF746FA064609E0FFF742FA0F
:10592000801B41F28831884202D9032091E707E0C9
:105930002248006800F00C006168B0EB810FEDD1E7
:105940001D48006800F00F00A84209D91A490D70DF
:105950000846006800F00F00A84201D0012078E757
:10596000207800F00400042807D11448006820F4CF
:10597000E050E168084311490860207800F0080011
:10598000082808D10D48006820F46040216940EAE9
:10599000C1000A49086000F05FF808490968C1F3CE
:1059A0000311074A515CC840064908600F20FFF701
:1059B00095FD00204DE70000003C02400838024001
:1059C000701F0108380000200F2202600D4A126883
:1059D00002F0030242600B4A126802F0F002826099
:1059E000084A126802F4E052C260064A126802F4E1
:1059F0006042D2080261044A126802F00F020A6093
:105A00007047000008380240003C0240014800682E
:105A1000704700003800002000B5FFF7F7FF044989
:105A20000968C1F38221034A515CC84000BD0000EF
:105A300008380240801F010800B5FFF7E7FF04495E
:105A40000968C1F34231034A515CC84000BD0000FF
:105A500008380240801F01082DE9F0470024002586
:105A60000026A1462548006800F00C0020B104285B
:105A700005D008283AD105E0DFF8849039E0DFF856
:105A8000849036E01D48001F006800F03F041B486A
:105A9000001F006800F4800078B11A481749091FF8
:105AA0000968C1F38811A0FB01700146224600235A
:105AB0003846FAF7E5FC05460EE011480F49091F84
:105AC0000968C1F38811A0FB01700146224600233A
:105AD0003846FAF7D5FC05460848001F0068C0F3B1
